{
  "abi": [
    {
      "inputs": [
        {
          "internalType": "address payable",
          "name": "_owner",
          "type": "address"
        },
        {
          "internalType": "address",
          "name": "_defimistFactory",
          "type": "address"
        },
        {
          "internalType": "address",
          "name": "_defimistRouter",
          "type": "address"
        },
        {
          "internalType": "address",
          "name": "_uniswapFactory",
          "type": "address"
        },
        {
          "internalType": "address",
          "name": "_uniswapRouter",
          "type": "address"
        },
        {
          "internalType": "address",
          "name": "_WETH",
          "type": "address"
        },
        {
          "internalType": "contract OracleCreator",
          "name": "_oracleCreater",
          "type": "address"
        }
      ],
      "stateMutability": "nonpayable",
      "type": "constructor"
    },
    {
      "anonymous": false,
      "inputs": [
        {
          "indexed": true,
          "internalType": "uint256",
          "name": "_orderIndex",
          "type": "uint256"
        }
      ],
      "name": "ExecutedOrder",
      "type": "event"
    },
    {
      "anonymous": false,
      "inputs": [
        {
          "indexed": true,
          "internalType": "uint256",
          "name": "_orderIndex",
          "type": "uint256"
        },
        {
          "indexed": true,
          "internalType": "uint8",
          "name": "_action",
          "type": "uint8"
        }
      ],
      "name": "NewOrder",
      "type": "event"
    },
    {
      "anonymous": false,
      "inputs": [
        {
          "indexed": true,
          "internalType": "uint256",
          "name": "_orderIndex",
          "type": "uint256"
        }
      ],
      "name": "WithdrawnExpiredOrder",
      "type": "event"
    },
    {
      "inputs": [],
      "name": "BOUNTY",
      "outputs": [
        {
          "internalType": "uint256",
          "name": "",
          "type": "uint256"
        }
      ],
      "stateMutability": "view",
      "type": "function"
    },
    {
      "inputs": [
        {
          "internalType": "address",
          "name": "token",
          "type": "address"
        },
        {
          "internalType": "uint256",
          "name": "amount",
          "type": "uint256"
        }
      ],
      "name": "ERC20Withdraw",
      "outputs": [],
      "stateMutability": "nonpayable",
      "type": "function"
    },
    {
      "inputs": [
        {
          "internalType": "uint256",
          "name": "amount",
          "type": "uint256"
        }
      ],
      "name": "ETHWithdraw",
      "outputs": [],
      "stateMutability": "nonpayable",
      "type": "function"
    },
    {
      "inputs": [],
      "name": "GAS_ORACLE_UPDATE",
      "outputs": [
        {
          "internalType": "uint256",
          "name": "",
          "type": "uint256"
        }
      ],
      "stateMutability": "view",
      "type": "function"
    },
    {
      "inputs": [
        {
          "internalType": "uint256",
          "name": "orderIndex",
          "type": "uint256"
        }
      ],
      "name": "GetOrderDetails",
      "outputs": [
        {
          "components": [
            {
              "internalType": "uint8",
              "name": "action",
              "type": "uint8"
            },
            {
              "internalType": "address",
              "name": "tokenA",
              "type": "address"
            },
            {
              "internalType": "address",
              "name": "tokenB",
              "type": "address"
            },
            {
              "internalType": "uint256",
              "name": "amountA",
              "type": "uint256"
            },
            {
              "internalType": "uint256",
              "name": "amountB",
              "type": "uint256"
            },
            {
              "internalType": "uint256",
              "name": "liquidity",
              "type": "uint256"
            },
            {
              "internalType": "uint256",
              "name": "priceTolerance",
              "type": "uint256"
            },
            {
              "internalType": "uint256",
              "name": "minReserveA",
              "type": "uint256"
            },
            {
              "internalType": "uint256",
              "name": "minReserveB",
              "type": "uint256"
            },
            {
              "internalType": "address",
              "name": "oraclePair",
              "type": "address"
            },
            {
              "internalType": "uint256",
              "name": "deadline",
              "type": "uint256"
            },
            {
              "internalType": "uint256",
              "name": "maxWindowTime",
              "type": "uint256"
            },
            {
              "internalType": "uint256",
              "name": "oracleId",
              "type": "uint256"
            },
            {
              "internalType": "address",
              "name": "factory",
              "type": "address"
            },
            {
              "internalType": "bool",
              "name": "executed",
              "type": "bool"
            }
          ],
          "internalType": "struct DefimistRelayer.Order",
          "name": "",
          "type": "tuple"
        }
      ],
      "stateMutability": "view",
      "type": "function"
    },
    {
      "inputs": [],
      "name": "PARTS_PER_MILLION",
      "outputs": [
        {
          "internalType": "uint256",
          "name": "",
          "type": "uint256"
        }
      ],
      "stateMutability": "view",
      "type": "function"
    },
    {
      "inputs": [],
      "name": "PROVISION",
      "outputs": [
        {
          "internalType": "uint8",
          "name": "",
          "type": "uint8"
        }
      ],
      "stateMutability": "view",
      "type": "function"
    },
    {
      "inputs": [],
      "name": "REMOVAL",
      "outputs": [
        {
          "internalType": "uint8",
          "name": "",
          "type": "uint8"
        }
      ],
      "stateMutability": "view",
      "type": "function"
    },
    {
      "inputs": [],
      "name": "WETH",
      "outputs": [
        {
          "internalType": "address",
          "name": "",
          "type": "address"
        }
      ],
      "stateMutability": "view",
      "type": "function"
    },
    {
      "inputs": [],
      "name": "defimistFactory",
      "outputs": [
        {
          "internalType": "address",
          "name": "",
          "type": "address"
        }
      ],
      "stateMutability": "view",
      "type": "function"
    },
    {
      "inputs": [],
      "name": "defimistRouter",
      "outputs": [
        {
          "internalType": "address",
          "name": "",
          "type": "address"
        }
      ],
      "stateMutability": "view",
      "type": "function"
    },
    {
      "inputs": [
        {
          "internalType": "uint256",
          "name": "orderIndex",
          "type": "uint256"
        }
      ],
      "name": "executeOrder",
      "outputs": [],
      "stateMutability": "nonpayable",
      "type": "function"
    },
    {
      "inputs": [],
      "name": "orderCount",
      "outputs": [
        {
          "internalType": "uint256",
          "name": "",
          "type": "uint256"
        }
      ],
      "stateMutability": "view",
      "type": "function"
    },
    {
      "inputs": [
        {
          "internalType": "address",
          "name": "tokenA",
          "type": "address"
        },
        {
          "internalType": "address",
          "name": "tokenB",
          "type": "address"
        },
        {
          "internalType": "uint256",
          "name": "amountA",
          "type": "uint256"
        },
        {
          "internalType": "uint256",
          "name": "amountB",
          "type": "uint256"
        },
        {
          "internalType": "uint256",
          "name": "priceTolerance",
          "type": "uint256"
        },
        {
          "internalType": "uint256",
          "name": "minReserveA",
          "type": "uint256"
        },
        {
          "internalType": "uint256",
          "name": "minReserveB",
          "type": "uint256"
        },
        {
          "internalType": "uint256",
          "name": "maxWindowTime",
          "type": "uint256"
        },
        {
          "internalType": "uint256",
          "name": "deadline",
          "type": "uint256"
        },
        {
          "internalType": "address",
          "name": "factory",
          "type": "address"
        }
      ],
      "name": "orderLiquidityProvision",
      "outputs": [
        {
          "internalType": "uint256",
          "name": "orderIndex",
          "type": "uint256"
        }
      ],
      "stateMutability": "payable",
      "type": "function"
    },
    {
      "inputs": [
        {
          "internalType": "address",
          "name": "tokenA",
          "type": "address"
        },
        {
          "internalType": "address",
          "name": "tokenB",
          "type": "address"
        },
        {
          "internalType": "uint256",
          "name": "liquidity",
          "type": "uint256"
        },
        {
          "internalType": "uint256",
          "name": "amountA",
          "type": "uint256"
        },
        {
          "internalType": "uint256",
          "name": "amountB",
          "type": "uint256"
        },
        {
          "internalType": "uint256",
          "name": "priceTolerance",
          "type": "uint256"
        },
        {
          "internalType": "uint256",
          "name": "minReserveA",
          "type": "uint256"
        },
        {
          "internalType": "uint256",
          "name": "minReserveB",
          "type": "uint256"
        },
        {
          "internalType": "uint256",
          "name": "maxWindowTime",
          "type": "uint256"
        },
        {
          "internalType": "uint256",
          "name": "deadline",
          "type": "uint256"
        },
        {
          "internalType": "address",
          "name": "factory",
          "type": "address"
        }
      ],
      "name": "orderLiquidityRemoval",
      "outputs": [
        {
          "internalType": "uint256",
          "name": "orderIndex",
          "type": "uint256"
        }
      ],
      "stateMutability": "nonpayable",
      "type": "function"
    },
    {
      "inputs": [],
      "name": "owner",
      "outputs": [
        {
          "internalType": "address payable",
          "name": "",
          "type": "address"
        }
      ],
      "stateMutability": "view",
      "type": "function"
    },
    {
      "inputs": [],
      "name": "uniswapFactory",
      "outputs": [
        {
          "internalType": "address",
          "name": "",
          "type": "address"
        }
      ],
      "stateMutability": "view",
      "type": "function"
    },
    {
      "inputs": [],
      "name": "uniswapRouter",
      "outputs": [
        {
          "internalType": "address",
          "name": "",
          "type": "address"
        }
      ],
      "stateMutability": "view",
      "type": "function"
    },
    {
      "inputs": [
        {
          "internalType": "uint256",
          "name": "orderIndex",
          "type": "uint256"
        }
      ],
      "name": "updateOracle",
      "outputs": [],
      "stateMutability": "nonpayable",
      "type": "function"
    },
    {
      "inputs": [
        {
          "internalType": "uint256",
          "name": "orderIndex",
          "type": "uint256"
        }
      ],
      "name": "withdrawExpiredOrder",
      "outputs": [],
      "stateMutability": "nonpayable",
      "type": "function"
    },
    {
      "stateMutability": "payable",
      "type": "receive"
    }
  ],
  "evm": {
    "bytecode": {
      "linkReferences": {},
      "object": "6101e0604052620291ac608052620f424060a052662386f26fc1000060c052600160f81b60e052600160f91b610100523480156200003c57600080fd5b50604051620037eb380380620037eb8339810160408190526200005f91620000c4565b606096871b6001600160601b03199081166101205295871b86166101405293861b85166101605291851b841661018052841b83166101a05290921b166101c052600080546001600160a01b0319166001600160a01b0390921691909117905562000187565b600080600080600080600060e0888a031215620000df578283fd5b8751620000ec816200016e565b6020890151909750620000ff816200016e565b604089015190965062000112816200016e565b606089015190955062000125816200016e565b608089015190945062000138816200016e565b60a08901519093506200014b816200016e565b60c08901519092506200015e816200016e565b8091505092959891949750929550565b6001600160a01b03811681146200018457600080fd5b50565b60805160a05160c05160e05160f81c6101005160f81c6101205160601c6101405160601c6101605160601c6101805160601c6101a05160601c6101c05160601c6134db62000310600039806109e252806110a95280611f985280612218528061228c5280612430528061255b52806125aa5280612618528061266752508061053052508061055452806105d9528061112e5280611f38525080610d485280611bbf52806122b452806122df528061231a52806123bc52806123e852806124585280612482528061253352508061059e5280610a0b528061103852806110cd52806110f35280611efd52508061037c5280610457528061048752806104b252806106345280610bcb52806111895280611b535280611b955280611c105280611c5352508061050c52806107b35280610b6e5280611003525080610fc452806114675280611677528061189d5250806119985280611be352508061070e5280610f025280610f5752806112575280611c7e52806120ea52508061057852806119bc52506134db6000f3fe6080604052600436106101235760003560e01c8063ad5f15f9116100a0578063c87e88fd11610064578063c87e88fd146102d1578063d081f2b8146102e6578063d530f4e7146102fb578063ec6ea8121461031b578063ffc5ea0d146103305761012a565b8063ad5f15f914610254578063b7345d2f14610269578063b964930a1461027c578063c23c1c9f14610291578063c58125bc146102b15761012a565b80638c0a63bf116100e75780638c0a63bf146101d55780638d091c34146101ea5780638da5cb5b1461020a57806394f611341461021f578063ad5c46481461023f5761012a565b80632453ffa81461012f5780632cb2db611461015a5780634860bfe51461017c578063735de9f71461019e5780638bdb2afa146101c05761012a565b3661012a57005b600080fd5b34801561013b57600080fd5b5061014461035d565b604051610151919061342e565b60405180910390f35b34801561016657600080fd5b5061017a610175366004612af9565b610363565b005b34801561018857600080fd5b5061019161050a565b604051610151919061346d565b3480156101aa57600080fd5b506101b361052e565b6040516101519190612c49565b3480156101cc57600080fd5b506101b3610552565b3480156101e157600080fd5b50610144610576565b3480156101f657600080fd5b506101446102053660046129bf565b61059a565b34801561021657600080fd5b506101b3610bc9565b34801561022b57600080fd5b5061017a61023a366004612af9565b610bed565b34801561024b57600080fd5b506101b36110a7565b34801561026057600080fd5b506101b36110cb565b61014461027736600461292f565b6110ef565b34801561028857600080fd5b5061019161189b565b34801561029d57600080fd5b5061017a6102ac366004612af9565b6118bf565b3480156102bd57600080fd5b5061017a6102cc366004612af9565b611b48565b3480156102dd57600080fd5b506101b3611bbd565b3480156102f257600080fd5b50610144611be1565b34801561030757600080fd5b5061017a610316366004612a5a565b611c05565b34801561032757600080fd5b50610144611c7c565b34801561033c57600080fd5b5061035061034b366004612af9565b611ca0565b6040516101519190613350565b60015481565b6000818152600260205260409020336001600160a01b037f000000000000000000000000000000000000000000000000000000000000000016146103c25760405162461bcd60e51b81526004016103b990612f76565b60405180910390fd5b806009015442116103e55760405162461bcd60e51b81526004016103b9906130bc565b600c810154600160a01b900460ff16156104115760405162461bcd60e51b81526004016103b990612ffc565b8054600182015460028301546003840154600c8501805460ff60a01b1916600160a01b1790556001600160a01b036101009094048416939290921691836104815761047c7f000000000000000000000000000000000000000000000000000000000000000083611d80565b6104ac565b6104ac847f000000000000000000000000000000000000000000000000000000000000000084611e12565b6104d7837f000000000000000000000000000000000000000000000000000000000000000083611e12565b60405186907f3f9d01b8340245ea975087559a7911155f1b300f5b19aa35fcc67d4adf962c8590600090a2505050505050565b7f000000000000000000000000000000000000000000000000000000000000000081565b7f000000000000000000000000000000000000000000000000000000000000000081565b7f000000000000000000000000000000000000000000000000000000000000000081565b7f000000000000000000000000000000000000000000000000000000000000000081565b60007f00000000000000000000000000000000000000000000000000000000000000006001600160a01b0316826001600160a01b0316148061060d57507f00000000000000000000000000000000000000000000000000000000000000006001600160a01b0316826001600160a01b0316145b6106295760405162461bcd60e51b81526004016103b990612e1b565b336001600160a01b037f000000000000000000000000000000000000000000000000000000000000000016146106715760405162461bcd60e51b81526004016103b990612f76565b8a6001600160a01b03168c6001600160a01b031614156106a35760405162461bcd60e51b81526004016103b990612de4565b8a6001600160a01b03168c6001600160a01b0316106106d45760405162461bcd60e51b81526004016103b990613187565b6000891180156106e45750600088115b80156106f0575060008a115b61070c5760405162461bcd60e51b81526004016103b990612eec565b7f000000000000000000000000000000000000000000000000000000000000000087111561074c5760405162461bcd60e51b81526004016103b9906131cb565b8242111561076c5760405162461bcd60e51b81526004016103b990613146565b601e841161078c5760405162461bcd60e51b81526004016103b99061330d565b60006107998d8d85611ef9565b90506107a3612040565b9150604051806101e001604052807f000000000000000000000000000000000000000000000000000000000000000060ff1681526020018e6001600160a01b031681526020018d6001600160a01b031681526020018b81526020018a81526020018c8152602001898152602001888152602001878152602001826001600160a01b0316815260200185815260200186815260200160008152602001846001600160a01b03168152602001600015158152506002600084815260200190815260200160002060008201518160000160006101000a81548160ff021916908360ff16021790555060208201518160000160016101000a8154816001600160a01b0302191690836001600160a01b0316021790555060408201518160010160006101000a8154816001600160a01b0302191690836001600160a01b03160217905550606082015181600201556080820151816003015560a0820151816004015560c0820151816005015560e0820151816006015561010082015181600701556101208201518160080160006101000a8154816001600160a01b0302191690836001600160a01b03160217905550610140820151816009015561016082015181600a015561018082015181600b01556101a082015181600c0160006101000a8154816001600160a01b0302191690836001600160a01b031602179055506101c082015181600c0160146101000a81548160ff02191690831515021790555090505060006001600160a01b03168d6001600160a01b0316146109e0578c610a02565b7f00000000000000000000000000000000000000000000000000000000000000005b9c506000610a317f00000000000000000000000000000000000000000000000000000000000000008f8f61204d565b9050600080826001600160a01b0316630902f1ac6040518163ffffffff1660e01b815260040160606040518083038186803b158015610a6f57600080fd5b505afa158015610a83573d6000803e3d6000fd5b505050506040513d601f19601f82011682018060405250810190610aa79190612aa5565b506001600160701b031691506001600160701b031691506000610acd8e8e85858d6120bd565b6000546040516306649d6760e01b81529192506001600160a01b0316906306649d6790610b009084908990600401613437565b602060405180830381600087803b158015610b1a57600080fd5b505af1158015610b2e573d6000803e3d6000fd5b505050506040513d601f19601f82011682018060405250810190610b529190612b11565b600087815260026020526040808220600b0192909255905160ff7f0000000000000000000000000000000000000000000000000000000000000000169188917f03d87a0db9f255a83b85d64d1e31d04ca94ac564c50b44f6ba9d52a731e441dc9190a350505050509b9a5050505050505050505050565b7f000000000000000000000000000000000000000000000000000000000000000081565b60008181526002602052604090206001548210610c1c5760405162461bcd60e51b81526004016103b990612d7f565b600c810154600160a01b900460ff1615610c485760405162461bcd60e51b81526004016103b990612ffc565b600054600b8201546040516325fa700360e01b81526001600160a01b03909216916325fa700391610c7b9160040161342e565b60206040518083038186803b158015610c9357600080fd5b505afa158015610ca7573d6000803e3d6000fd5b505050506040513d601f19601f82011682018060405250810190610ccb9190612a85565b610ce75760405162461bcd60e51b81526004016103b990613033565b8060090154421115610d0b5760405162461bcd60e51b81526004016103b990613146565b8054600182015460008054600b8501546101009094046001600160a01b039081169493811693911690634023282b908515610d465785610dd7565b7f00000000000000000000000000000000000000000000000000000000000000006001600160a01b031663ad5c46486040518163ffffffff1660e01b815260040160206040518083038186803b158015610d9f57600080fd5b505afa158015610db3573d6000803e3d6000fd5b505050506040513d601f19601f82011682018060405250810190610dd7919061290c565b87600201546040518463ffffffff1660e01b8152600401610dfa9392919061344e565b60206040518083038186803b158015610e1257600080fd5b505afa158015610e26573d6000803e3d6000fd5b505050506040513d601f19601f82011682018060405250810190610e4a9190612b11565b60008054600b8701546003880154604051634023282b60e01b815294955092936001600160a01b0390921692634023282b92610e8b9291889160040161344e565b60206040518083038186803b158015610ea357600080fd5b505afa158015610eb7573d6000803e3d6000fd5b505050506040513d601f19601f82011682018060405250810190610edb9190612b11565b905084600201548111610ef45784600301549150610efb565b5060028401545b6000610f4e7f0000000000000000000000000000000000000000000000000000000000000000610f388860050154856121a490919063ffffffff16565b81610f3f57fe5b8491900463ffffffff6121e116565b90506000610fa37f0000000000000000000000000000000000000000000000000000000000000000610f8d8960050154876121a490919063ffffffff16565b81610f9457fe5b8691900463ffffffff6121e116565b600c8801805460ff60a01b1916600160a01b179055875490915060ff9081167f00000000000000000000000000000000000000000000000000000000000000009091161415610fff57610ffa868685878686612204565b611072565b86547f000000000000000000000000000000000000000000000000000000000000000060ff9081169116141561107257600061105c87877f0000000000000000000000000000000000000000000000000000000000000000611ef9565b90506110708787838b600401548787612419565b505b60405188907f524f8e6c94465b4ab34a95b899f86628f3f6445ae120c4dacc9b3a67011dc25990600090a25050505050505050565b7f000000000000000000000000000000000000000000000000000000000000000081565b7f000000000000000000000000000000000000000000000000000000000000000081565b60007f00000000000000000000000000000000000000000000000000000000000000006001600160a01b0316826001600160a01b0316148061116257507f00000000000000000000000000000000000000000000000000000000000000006001600160a01b0316826001600160a01b0316145b61117e5760405162461bcd60e51b81526004016103b990612e1b565b336001600160a01b037f000000000000000000000000000000000000000000000000000000000000000016146111c65760405162461bcd60e51b81526004016103b990612f76565b896001600160a01b03168b6001600160a01b031614156111f85760405162461bcd60e51b81526004016103b990612de4565b896001600160a01b03168b6001600160a01b0316106112295760405162461bcd60e51b81526004016103b990613187565b6000891180156112395750600088115b6112555760405162461bcd60e51b81526004016103b990613101565b7f00000000000000000000000000000000000000000000000000000000000000008711156112955760405162461bcd60e51b81526004016103b9906131cb565b824211156112b55760405162461bcd60e51b81526004016103b990613146565b601e84116112d55760405162461bcd60e51b81526004016103b99061330d565b6001600160a01b038b1661130857884710156113035760405162461bcd60e51b81526004016103b990612f35565b6113a4565b6040516370a0823160e01b815289906001600160a01b038d16906370a0823190611336903090600401612c49565b60206040518083038186803b15801561134e57600080fd5b505afa158015611362573d6000803e3d6000fd5b505050506040513d601f19601f820116820180604052508101906113869190612b11565b10156113a45760405162461bcd60e51b81526004016103b990612fb7565b6040516370a0823160e01b815288906001600160a01b038c16906370a08231906113d2903090600401612c49565b60206040518083038186803b1580156113ea57600080fd5b505afa1580156113fe573d6000803e3d6000fd5b505050506040513d601f19601f820116820180604052508101906114229190612b11565b10156114405760405162461bcd60e51b81526004016103b990613077565b600061144d8c8c85611ef9565b9050611457612040565b9150604051806101e001604052807f000000000000000000000000000000000000000000000000000000000000000060ff1681526020018d6001600160a01b031681526020018c6001600160a01b031681526020018b81526020018a815260200160008152602001898152602001888152602001878152602001826001600160a01b0316815260200185815260200186815260200160008152602001846001600160a01b03168152602001600015158152506002600084815260200190815260200160002060008201518160000160006101000a81548160ff021916908360ff16021790555060208201518160000160016101000a8154816001600160a01b0302191690836001600160a01b0316021790555060408201518160010160006101000a8154816001600160a01b0302191690836001600160a01b03160217905550606082015181600201556080820151816003015560a0820151816004015560c0820151816005015560e0820151816006015561010082015181600701556101208201518160080160006101000a8154816001600160a01b0302191690836001600160a01b03160217905550610140820151816009015561016082015181600a015561018082015181600b01556101a082015181600c0160006101000a8154816001600160a01b0302191690836001600160a01b031602179055506101c082015181600c0160146101000a81548160ff0219169083151502179055509050507f000000000000000000000000000000000000000000000000000000000000000060ff16827f03d87a0db9f255a83b85d64d1e31d04ca94ac564c50b44f6ba9d52a731e441dc60405160405180910390a3600080826001600160a01b0316630902f1ac6040518163ffffffff1660e01b815260040160606040518083038186803b15801561170257600080fd5b505afa158015611716573d6000803e3d6000fd5b505050506040513d601f19601f8201168201806040525081019061173a9190612aa5565b506001600160701b031691506001600160701b0316915088600014801561175f575087155b8015611769575081155b8015611773575080155b156117e2576000848152600260208190526040909120600c8101805460ff60a01b1916600160a01b17905501546117b2908f908f908f908f9080612204565b60405184907f524f8e6c94465b4ab34a95b899f86628f3f6445ae120c4dacc9b3a67011dc25990600090a261188a565b60006117f18d8d85858c6120bd565b6000546040516306649d6760e01b81529192506001600160a01b0316906306649d67906118249084908890600401613437565b602060405180830381600087803b15801561183e57600080fd5b505af1158015611852573d6000803e3d6000fd5b505050506040513d601f19601f820116820180604052508101906118769190612b11565b6000868152600260205260409020600b0155505b5050509a9950505050505050505050565b7f000000000000000000000000000000000000000000000000000000000000000081565b600081815260026020526040902060098101544211156118f15760405162461bcd60e51b81526004016103b990613146565b600054600b8201546040516325fa700360e01b81526001600160a01b03909216916325fa7003916119249160040161342e565b60206040518083038186803b15801561193c57600080fd5b505afa158015611950573d6000803e3d6000fd5b505050506040513d601f19601f820116820180604052508101906119749190612a85565b156119915760405162461bcd60e51b81526004016103b99061320d565b60006119f37f00000000000000000000000000000000000000000000000000000000000000006119e77f00000000000000000000000000000000000000000000000000000000000000003a63ffffffff6121a416565b9063ffffffff6126d916565b90506000808360080160009054906101000a90046001600160a01b03166001600160a01b0316630902f1ac6040518163ffffffff1660e01b815260040160606040518083038186803b158015611a4857600080fd5b505afa158015611a5c573d6000803e3d6000fd5b505050506040513d601f19601f82011682018060405250810190611a809190612aa5565b506001600160701b031691506001600160701b0316915083600601548210158015611aaf575083600701548110155b611acb5760405162461bcd60e51b81526004016103b9906132d6565b600054600b850154604051634155c48560e11b81526001600160a01b03909216916382ab890a91611afe9160040161342e565b600060405180830381600087803b158015611b1857600080fd5b505af1158015611b2c573d6000803e3d6000fd5b50505050824710611b4157611b413384611d80565b5050505050565b336001600160a01b037f00000000000000000000000000000000000000000000000000000000000000001614611b905760405162461bcd60e51b81526004016103b990612f76565b611bba7f000000000000000000000000000000000000000000000000000000000000000082611d80565b50565b7f000000000000000000000000000000000000000000000000000000000000000081565b7f000000000000000000000000000000000000000000000000000000000000000081565b336001600160a01b037f00000000000000000000000000000000000000000000000000000000000000001614611c4d5760405162461bcd60e51b81526004016103b990612f76565b611c78827f000000000000000000000000000000000000000000000000000000000000000083611e12565b5050565b7f000000000000000000000000000000000000000000000000000000000000000081565b611ca861286d565b5060009081526002602081815260409283902083516101e081018552815460ff80821683526001600160a01b0361010092839004811695840195909552600184015485169683019690965293820154606082015260038201546080820152600482015460a0820152600582015460c0820152600682015460e0820152600782015493810193909352600881015482166101208401526009810154610140840152600a810154610160840152600b810154610180840152600c01549081166101a0830152600160a01b900490911615156101c082015290565b604080516000808252602082019092526001600160a01b038416908390604051611daa9190612bba565b60006040518083038185875af1925050503d8060008114611de7576040519150601f19603f3d011682016040523d82523d6000602084013e611dec565b606091505b5050905080611e0d5760405162461bcd60e51b81526004016103b99061324f565b505050565b60006060846001600160a01b031663a9059cbb8585604051602401611e38929190612d00565b6040516020818303038152906040529060e01b6020820180516001600160e01b038381831617835250505050604051611e719190612bba565b6000604051808303816000865af19150503d8060008114611eae576040519150601f19603f3d011682016040523d82523d6000602084013e611eb3565b606091505b5091509150818015611edd575080511580611edd575080806020019051810190611edd9190612a85565b611b415760405162461bcd60e51b81526004016103b990612d48565b60007f00000000000000000000000000000000000000000000000000000000000000006001600160a01b0316826001600160a01b03161480611f6c57507f00000000000000000000000000000000000000000000000000000000000000006001600160a01b0316826001600160a01b0316145b611f885760405162461bcd60e51b81526004016103b990612e1b565b6001600160a01b038416611fba577f000000000000000000000000000000000000000000000000000000000000000093505b60405163e6a4390560e01b81526001600160a01b0383169063e6a4390590611fe89087908790600401612c5d565b60206040518083038186803b15801561200057600080fd5b505afa158015612014573d6000803e3d6000fd5b505050506040513d601f19601f82011682018060405250810190612038919061290c565b949350505050565b6001805480820190915590565b600080600061205c85856126fc565b91509150858282604051602001612074929190612b93565b6040516020818303038152906040528051906020012060405160200161209b929190612bf3565b60408051601f1981840301815291905280516020909101209695505050505050565b600080841180156120ce5750600083115b156121985760006120e5858563ffffffff6126d916565b6121257f00000000000000000000000000000000000000000000000000000000000000006121198a8a63ffffffff6126d916565b9063ffffffff6121a416565b8161212c57fe5b0490506103e881101561214257601e9150612180565b6109c481101561215557603c9150612180565b61138881101561216857605a9150612180565b61271081101561217b5760789150612180565b609691505b8282111561218e5782612190565b815b91505061219b565b50805b95945050505050565b60008115806121bf575050808202828282816121bc57fe5b04145b6121db5760405162461bcd60e51b81526004016103b990612db6565b92915050565b808203828111156121db5760405162461bcd60e51b81526004016103b990612d19565b600080806001600160a01b0389166122ae577f00000000000000000000000000000000000000000000000000000000000000006001600160a01b031663d0e30db0886040518263ffffffff1660e01b81526004016000604051808303818588803b15801561227157600080fd5b505af1158015612285573d6000803e3d6000fd5b50505050507f000000000000000000000000000000000000000000000000000000000000000098505b6122d9897f000000000000000000000000000000000000000000000000000000000000000089612786565b612304887f000000000000000000000000000000000000000000000000000000000000000088612786565b60405162e8e33760e81b81526001600160a01b037f0000000000000000000000000000000000000000000000000000000000000000169063e8e337009061235d908c908c908c908c908c908c9030904290600401612cb7565b606060405180830381600087803b15801561237757600080fd5b505af115801561238b573d6000803e3d6000fd5b505050506040513d601f19601f820116820180604052508101906123af9190612b4c565b919450925090506123e2897f00000000000000000000000000000000000000000000000000000000000000006000612786565b61240e887f00000000000000000000000000000000000000000000000000000000000000006000612786565b505050505050505050565b6001600160a01b0386161561242e5785612450565b7f00000000000000000000000000000000000000000000000000000000000000005b955061247d847f000000000000000000000000000000000000000000000000000000000000000085612786565b6000807f00000000000000000000000000000000000000000000000000000000000000006001600160a01b031663baa2abde898988888830426040518863ffffffff1660e01b81526004016124d89796959493929190612c77565b6040805180830381600087803b1580156124f157600080fd5b505af1158015612505573d6000803e3d6000fd5b505050506040513d601f19601f820116820180604052508101906125299190612b29565b91509150612559867f00000000000000000000000000000000000000000000000000000000000000006000612786565b7f00000000000000000000000000000000000000000000000000000000000000006001600160a01b0316886001600160a01b0316141561261657604051632e1a7d4d60e01b81526001600160a01b037f00000000000000000000000000000000000000000000000000000000000000001690632e1a7d4d906125df90859060040161342e565b600060405180830381600087803b1580156125f957600080fd5b505af115801561260d573d6000803e3d6000fd5b505050506126cf565b7f00000000000000000000000000000000000000000000000000000000000000006001600160a01b0316876001600160a01b031614156126cf57604051632e1a7d4d60e01b81526001600160a01b037f00000000000000000000000000000000000000000000000000000000000000001690632e1a7d4d9061269c90849060040161342e565b600060405180830381600087803b1580156126b657600080fd5b505af11580156126ca573d6000803e3d6000fd5b505050505b5050505050505050565b808201828110156121db5760405162461bcd60e51b81526004016103b990612e50565b600080826001600160a01b0316846001600160a01b031614156127315760405162461bcd60e51b81526004016103b990613292565b826001600160a01b0316846001600160a01b031610612751578284612754565b83835b90925090506001600160a01b03821661277f5760405162461bcd60e51b81526004016103b990612eb5565b9250929050565b60006060846001600160a01b031663095ea7b385856040516024016127ac929190612d00565b6040516020818303038152906040529060e01b6020820180516001600160e01b0383818316178352505050506040516127e59190612bba565b6000604051808303816000865af19150503d8060008114612822576040519150601f19603f3d011682016040523d82523d6000602084013e612827565b606091505b50915091508180156128515750805115806128515750808060200190518101906128519190612a85565b611b415760405162461bcd60e51b81526004016103b990612e7e565b604051806101e00160405280600060ff16815260200160006001600160a01b0316815260200160006001600160a01b0316815260200160008152602001600081526020016000815260200160008152602001600081526020016000815260200160006001600160a01b0316815260200160008152602001600081526020016000815260200160006001600160a01b031681526020016000151581525090565b60006020828403121561291d578081fd5b81516129288161347b565b9392505050565b6000806000806000806000806000806101408b8d03121561294e578586fd5b8a356129598161347b565b995060208b01356129698161347b565b985060408b0135975060608b0135965060808b0135955060a08b0135945060c08b0135935060e08b013592506101008b013591506101208b01356129ac8161347b565b809150509295989b9194979a5092959850565b60008060008060008060008060008060006101608c8e0312156129e0578081fd5b8b356129eb8161347b565b9a5060208c01356129fb8161347b565b995060408c0135985060608c0135975060808c0135965060a08c0135955060c08c0135945060e08c013593506101008c013592506101208c013591506101408c0135612a468161347b565b809150509295989b509295989b9093969950565b60008060408385031215612a6c578182fd5b8235612a778161347b565b946020939093013593505050565b600060208284031215612a96578081fd5b81518015158114612928578182fd5b600080600060608486031215612ab9578283fd5b8351612ac481613490565b6020850151909350612ad581613490565b604085015190925063ffffffff81168114612aee578182fd5b809150509250925092565b600060208284031215612b0a578081fd5b5035919050565b600060208284031215612b22578081fd5b5051919050565b60008060408385031215612b3b578182fd5b505080516020909101519092909150565b600080600060608486031215612b60578283fd5b8351925060208401519150604084015190509250925092565b6001600160a01b03169052565b15159052565b60ff169052565b6bffffffffffffffffffffffff19606093841b811682529190921b16601482015260280190565b60008251815b81811015612bda5760208186018101518583015201612bc0565b81811115612be85782828501525b509190910192915050565b6001600160f81b0319815260609290921b6bffffffffffffffffffffffff1916600183015260158201527fd306a548755b9295ee49cc729e13ca4a45e00199bbd890fa146da43a50571776603582015260550190565b6001600160a01b0391909116815260200190565b6001600160a01b0392831681529116602082015260400190565b6001600160a01b039788168152958716602087015260408601949094526060850192909252608084015290921660a082015260c081019190915260e00190565b6001600160a01b039889168152968816602088015260408701959095526060860193909352608085019190915260a084015290921660c082015260e08101919091526101000190565b6001600160a01b03929092168252602082015260400190565b60208082526015908201527464732d6d6174682d7375622d756e646572666c6f7760581b604082015260600190565b6020808252601f908201527f5472616e7366657248656c7065723a205452414e534645525f4641494c454400604082015260600190565b6020808252601e908201527f446566696d69737452656c617965723a20494e56414c49445f4f524445520000604082015260600190565b60208082526014908201527364732d6d6174682d6d756c2d6f766572666c6f7760601b604082015260600190565b6020808252601d908201527f446566696d69737452656c617965723a20494e56414c49445f50414952000000604082015260600190565b6020808252818101527f446566696d69737452656c617965723a20494e56414c49445f464143544f5259604082015260600190565b60208082526014908201527364732d6d6174682d6164642d6f766572666c6f7760601b604082015260600190565b6020808252601e908201527f5472616e7366657248656c7065723a20415050524f56455f4641494c45440000604082015260600190565b6020808252601d908201527f446566696d6973744c6962726172793a205a45524f5f41444452455353000000604082015260600190565b60208082526029908201527f446566696d69737452656c617965723a20494e56414c49445f4c495155494449604082015268151657d05353d5539560ba1b606082015260800190565b60208082526021908201527f446566696d69737452656c617965723a20494e53554646494349454e545f45546040820152600960fb1b606082015260800190565b60208082526021908201527f446566696d69737452656c617965723a2043414c4c45525f4e4f545f4f574e456040820152602960f91b606082015260800190565b60208082526025908201527f446566696d69737452656c617965723a20494e53554646494349454e545f544f6040820152644b454e5f4160d81b606082015260800190565b6020808252601f908201527f446566696d69737452656c617965723a204f524445525f455845435554454400604082015260600190565b60208082526024908201527f446566696d69737452656c617965723a204f42534552564154494f4e5f52554e6040820152634e494e4760e01b606082015260800190565b60208082526025908201527f446566696d69737452656c617965723a20494e53554646494349454e545f544f60408201526425a2a72fa160d91b606082015260800190565b60208082526025908201527f446566696d69737452656c617965723a20444541444c494e455f4e4f545f52456040820152641050d2115160da1b606082015260800190565b60208082526025908201527f446566696d69737452656c617965723a20494e56414c49445f544f4b454e5f416040820152641353d5539560da1b606082015260800190565b60208082526021908201527f446566696d69737452656c617965723a20444541444c494e455f5245414348456040820152601160fa1b606082015260800190565b60208082526024908201527f446566696d69737452656c617965723a20494e56414c49445f544f4b454e5f4f604082015263292222a960e11b606082015260800190565b60208082526022908201527f446566696d69737452656c617965723a20494e56414c49445f544f4c4552414e604082015261434560f01b606082015260800190565b60208082526022908201527f446566696d69737452656c617965723a204f42534552564154494f4e5f454e44604082015261115160f21b606082015260800190565b60208082526023908201527f5472616e7366657248656c7065723a204554485f5452414e534645525f46414960408201526213115160ea1b606082015260800190565b60208082526024908201527f446566696d6973744c6962726172793a204944454e544943414c5f41444452456040820152635353455360e01b606082015260800190565b6020808252601f908201527f446566696d69737452656c617965723a20524553455256455f544f5f4c4f5700604082015260600190565b60208082526023908201527f446566696d69737452656c617965723a20494e56414c49445f57494e444f5754604082015262494d4560e81b606082015260800190565b60006101e082019050613364828451612b8c565b60208301516133766020840182612b79565b5060408301516133896040840182612b79565b50606083015160608301526080830151608083015260a083015160a083015260c083015160c083015260e083015160e0830152610100808401518184015250610120808401516133db82850182612b79565b50506101408381015190830152610160808401519083015261018080840151908301526101a08084015161341182850182612b79565b50506101c08084015161342682850182612b86565b505092915050565b90815260200190565b9182526001600160a01b0316602082015260400190565b9283526001600160a01b03919091166020830152604082015260600190565b60ff91909116815260200190565b6001600160a01b0381168114611bba57600080fd5b6001600160701b0381168114611bba57600080fdfea2646970667358221220996e9c7beed1e714ba72942db5ff3f021c5934235d19a358adc9f34b1d2e6d0d64736f6c63430006060033",
      "opcodes": "PUSH2 0x1E0 PUSH1 0x40 MSTORE PUSH3 0x291AC PUSH1 0x80 MSTORE PUSH3 0xF4240 PUSH1 0xA0 MSTORE PUSH7 0x2386F26FC10000 PUSH1 0xC0 MSTORE PUSH1 0x1 PUSH1 0xF8 SHL PUSH1 0xE0 MSTORE PUSH1 0x1 PUSH1 0xF9 SHL PUSH2 0x100 MSTORE CALLVALUE DUP1 ISZERO PUSH3 0x3C JUMPI PUSH1 0x0 DUP1 REVERT JUMPDEST POP PUSH1 0x40 MLOAD PUSH3 0x37EB CODESIZE SUB DUP1 PUSH3 0x37EB DUP4 CODECOPY DUP2 ADD PUSH1 0x40 DUP2 SWAP1 MSTORE PUSH3 0x5F SWAP2 PUSH3 0xC4 JUMP JUMPDEST PUSH1 0x60 SWAP7 DUP8 SHL PUSH1 0x1 PUSH1 0x1 PUSH1 0x60 SHL SUB NOT SWAP1 DUP2 AND PUSH2 0x120 MSTORE SWAP6 DUP8 SHL DUP7 AND PUSH2 0x140 MSTORE SWAP4 DUP7 SHL DUP6 AND PUSH2 0x160 MSTORE SWAP2 DUP6 SHL DUP5 AND PUSH2 0x180 MSTORE DUP5 SHL DUP4 AND PUSH2 0x1A0 MSTORE SWAP1 SWAP3 SHL AND PUSH2 0x1C0 MSTORE PUSH1 0x0 DUP1 SLOAD PUSH1 0x1 PUSH1 0x1 PUSH1 0xA0 SHL SUB NOT AND PUSH1 0x1 PUSH1 0x1 PUSH1 0xA0 SHL SUB SWAP1 SWAP3 AND SWAP2 SWAP1 SWAP2 OR SWAP1 SSTORE PUSH3 0x187 JUMP JUMPDEST PUSH1 0x0 DUP1 PUSH1 0x0 DUP1 PUSH1 0x0 DUP1 PUSH1 0x0 PUSH1 0xE0 DUP9 DUP11 SUB SLT ISZERO PUSH3 0xDF JUMPI DUP3 DUP4 REVERT JUMPDEST DUP8 MLOAD PUSH3 0xEC DUP2 PUSH3 0x16E JUMP JUMPDEST PUSH1 0x20 DUP10 ADD MLOAD SWAP1 SWAP8 POP PUSH3 0xFF DUP2 PUSH3 0x16E JUMP JUMPDEST PUSH1 0x40 DUP10 ADD MLOAD SWAP1 SWAP7 POP PUSH3 0x112 DUP2 PUSH3 0x16E JUMP JUMPDEST PUSH1 0x60 DUP10 ADD MLOAD SWAP1 SWAP6 POP PUSH3 0x125 DUP2 PUSH3 0x16E JUMP JUMPDEST PUSH1 0x80 DUP10 ADD MLOAD SWAP1 SWAP5 POP PUSH3 0x138 DUP2 PUSH3 0x16E JUMP JUMPDEST PUSH1 0xA0 DUP10 ADD MLOAD SWAP1 SWAP4 POP PUSH3 0x14B DUP2 PUSH3 0x16E JUMP JUMPDEST PUSH1 0xC0 DUP10 ADD MLOAD SWAP1 SWAP3 POP PUSH3 0x15E DUP2 PUSH3 0x16E JUMP JUMPDEST DUP1 SWAP2 POP POP SWAP3 SWAP6 SWAP9 SWAP2 SWAP5 SWAP8 POP SWAP3 SWAP6 POP JUMP JUMPDEST PUSH1 0x1 PUSH1 0x1 PUSH1 0xA0 SHL SUB DUP2 AND DUP2 EQ PUSH3 0x184 JUMPI PUSH1 0x0 DUP1 REVERT JUMPDEST POP JUMP JUMPDEST PUSH1 0x80 MLOAD PUSH1 0xA0 MLOAD PUSH1 0xC0 MLOAD PUSH1 0xE0 MLOAD PUSH1 0xF8 SHR PUSH2 0x100 MLOAD PUSH1 0xF8 SHR PUSH2 0x120 MLOAD PUSH1 0x60 SHR PUSH2 0x140 MLOAD PUSH1 0x60 SHR PUSH2 0x160 MLOAD PUSH1 0x60 SHR PUSH2 0x180 MLOAD PUSH1 0x60 SHR PUSH2 0x1A0 MLOAD PUSH1 0x60 SHR PUSH2 0x1C0 MLOAD PUSH1 0x60 SHR PUSH2 0x34DB PUSH3 0x310 PUSH1 0x0 CODECOPY DUP1 PUSH2 0x9E2 MSTORE DUP1 PUSH2 0x10A9 MSTORE DUP1 PUSH2 0x1F98 MSTORE DUP1 PUSH2 0x2218 MSTORE DUP1 PUSH2 0x228C MSTORE DUP1 PUSH2 0x2430 MSTORE DUP1 PUSH2 0x255B MSTORE DUP1 PUSH2 0x25AA MSTORE DUP1 PUSH2 0x2618 MSTORE DUP1 PUSH2 0x2667 MSTORE POP DUP1 PUSH2 0x530 MSTORE POP DUP1 PUSH2 0x554 MSTORE DUP1 PUSH2 0x5D9 MSTORE DUP1 PUSH2 0x112E MSTORE DUP1 PUSH2 0x1F38 MSTORE POP DUP1 PUSH2 0xD48 MSTORE DUP1 PUSH2 0x1BBF MSTORE DUP1 PUSH2 0x22B4 MSTORE DUP1 PUSH2 0x22DF MSTORE DUP1 PUSH2 0x231A MSTORE DUP1 PUSH2 0x23BC MSTORE DUP1 PUSH2 0x23E8 MSTORE DUP1 PUSH2 0x2458 MSTORE DUP1 PUSH2 0x2482 MSTORE DUP1 PUSH2 0x2533 MSTORE POP DUP1 PUSH2 0x59E MSTORE DUP1 PUSH2 0xA0B MSTORE DUP1 PUSH2 0x1038 MSTORE DUP1 PUSH2 0x10CD MSTORE DUP1 PUSH2 0x10F3 MSTORE DUP1 PUSH2 0x1EFD MSTORE POP DUP1 PUSH2 0x37C MSTORE DUP1 PUSH2 0x457 MSTORE DUP1 PUSH2 0x487 MSTORE DUP1 PUSH2 0x4B2 MSTORE DUP1 PUSH2 0x634 MSTORE DUP1 PUSH2 0xBCB MSTORE DUP1 PUSH2 0x1189 MSTORE DUP1 PUSH2 0x1B53 MSTORE DUP1 PUSH2 0x1B95 MSTORE DUP1 PUSH2 0x1C10 MSTORE DUP1 PUSH2 0x1C53 MSTORE POP DUP1 PUSH2 0x50C MSTORE DUP1 PUSH2 0x7B3 MSTORE DUP1 PUSH2 0xB6E MSTORE DUP1 PUSH2 0x1003 MSTORE POP DUP1 PUSH2 0xFC4 MSTORE DUP1 PUSH2 0x1467 MSTORE DUP1 PUSH2 0x1677 MSTORE DUP1 PUSH2 0x189D MSTORE POP DUP1 PUSH2 0x1998 MSTORE DUP1 PUSH2 0x1BE3 MSTORE POP DUP1 PUSH2 0x70E MSTORE DUP1 PUSH2 0xF02 MSTORE DUP1 PUSH2 0xF57 MSTORE DUP1 PUSH2 0x1257 MSTORE DUP1 PUSH2 0x1C7E MSTORE DUP1 PUSH2 0x20EA MSTORE POP DUP1 PUSH2 0x578 MSTORE DUP1 PUSH2 0x19BC MSTORE POP PUSH2 0x34DB PUSH1 0x0 RETURN INVALID PUSH1 0x80 PUSH1 0x40 MSTORE PUSH1 0x4 CALLDATASIZE LT PUSH2 0x123 JUMPI PUSH1 0x0 CALLDATALOAD PUSH1 0xE0 SHR DUP1 PUSH4 0xAD5F15F9 GT PUSH2 0xA0 JUMPI DUP1 PUSH4 0xC87E88FD GT PUSH2 0x64 JUMPI DUP1 PUSH4 0xC87E88FD EQ PUSH2 0x2D1 JUMPI DUP1 PUSH4 0xD081F2B8 EQ PUSH2 0x2E6 JUMPI DUP1 PUSH4 0xD530F4E7 EQ PUSH2 0x2FB JUMPI DUP1 PUSH4 0xEC6EA812 EQ PUSH2 0x31B JUMPI DUP1 PUSH4 0xFFC5EA0D EQ PUSH2 0x330 JUMPI PUSH2 0x12A JUMP JUMPDEST DUP1 PUSH4 0xAD5F15F9 EQ PUSH2 0x254 JUMPI DUP1 PUSH4 0xB7345D2F EQ PUSH2 0x269 JUMPI DUP1 PUSH4 0xB964930A EQ PUSH2 0x27C JUMPI DUP1 PUSH4 0xC23C1C9F EQ PUSH2 0x291 JUMPI DUP1 PUSH4 0xC58125BC EQ PUSH2 0x2B1 JUMPI PUSH2 0x12A JUMP JUMPDEST DUP1 PUSH4 0x8C0A63BF GT PUSH2 0xE7 JUMPI DUP1 PUSH4 0x8C0A63BF EQ PUSH2 0x1D5 JUMPI DUP1 PUSH4 0x8D091C34 EQ PUSH2 0x1EA JUMPI DUP1 PUSH4 0x8DA5CB5B EQ PUSH2 0x20A JUMPI DUP1 PUSH4 0x94F61134 EQ PUSH2 0x21F JUMPI DUP1 PUSH4 0xAD5C4648 EQ PUSH2 0x23F JUMPI PUSH2 0x12A JUMP JUMPDEST DUP1 PUSH4 0x2453FFA8 EQ PUSH2 0x12F JUMPI DUP1 PUSH4 0x2CB2DB61 EQ PUSH2 0x15A JUMPI DUP1 PUSH4 0x4860BFE5 EQ PUSH2 0x17C JUMPI DUP1 PUSH4 0x735DE9F7 EQ PUSH2 0x19E JUMPI DUP1 PUSH4 0x8BDB2AFA EQ PUSH2 0x1C0 JUMPI PUSH2 0x12A JUMP JUMPDEST CALLDATASIZE PUSH2 0x12A JUMPI STOP JUMPDEST PUSH1 0x0 DUP1 REVERT JUMPDEST CALLVALUE DUP1 ISZERO PUSH2 0x13B JUMPI PUSH1 0x0 DUP1 REVERT JUMPDEST POP PUSH2 0x144 PUSH2 0x35D JUMP JUMPDEST PUSH1 0x40 MLOAD PUSH2 0x151 SWAP2 SWAP1 PUSH2 0x342E JUMP JUMPDEST PUSH1 0x40 MLOAD DUP1 SWAP2 SUB SWAP1 RETURN JUMPDEST CALLVALUE DUP1 ISZERO PUSH2 0x166 JUMPI PUSH1 0x0 DUP1 REVERT JUMPDEST POP PUSH2 0x17A PUSH2 0x175 CALLDATASIZE PUSH1 0x4 PUSH2 0x2AF9 JUMP JUMPDEST PUSH2 0x363 JUMP JUMPDEST STOP JUMPDEST CALLVALUE DUP1 ISZERO PUSH2 0x188 JUMPI PUSH1 0x0 DUP1 REVERT JUMPDEST POP PUSH2 0x191 PUSH2 0x50A JUMP JUMPDEST PUSH1 0x40 MLOAD PUSH2 0x151 SWAP2 SWAP1 PUSH2 0x346D JUMP JUMPDEST CALLVALUE DUP1 ISZERO PUSH2 0x1AA JUMPI PUSH1 0x0 DUP1 REVERT JUMPDEST POP PUSH2 0x1B3 PUSH2 0x52E JUMP JUMPDEST PUSH1 0x40 MLOAD PUSH2 0x151 SWAP2 SWAP1 PUSH2 0x2C49 JUMP JUMPDEST CALLVALUE DUP1 ISZERO PUSH2 0x1CC JUMPI PUSH1 0x0 DUP1 REVERT JUMPDEST POP PUSH2 0x1B3 PUSH2 0x552 JUMP JUMPDEST CALLVALUE DUP1 ISZERO PUSH2 0x1E1 JUMPI PUSH1 0x0 DUP1 REVERT JUMPDEST POP PUSH2 0x144 PUSH2 0x576 JUMP JUMPDEST CALLVALUE DUP1 ISZERO PUSH2 0x1F6 JUMPI PUSH1 0x0 DUP1 REVERT JUMPDEST POP PUSH2 0x144 PUSH2 0x205 CALLDATASIZE PUSH1 0x4 PUSH2 0x29BF JUMP JUMPDEST PUSH2 0x59A JUMP JUMPDEST CALLVALUE DUP1 ISZERO PUSH2 0x216 JUMPI PUSH1 0x0 DUP1 REVERT JUMPDEST POP PUSH2 0x1B3 PUSH2 0xBC9 JUMP JUMPDEST CALLVALUE DUP1 ISZERO PUSH2 0x22B JUMPI PUSH1 0x0 DUP1 REVERT JUMPDEST POP PUSH2 0x17A PUSH2 0x23A CALLDATASIZE PUSH1 0x4 PUSH2 0x2AF9 JUMP JUMPDEST PUSH2 0xBED JUMP JUMPDEST CALLVALUE DUP1 ISZERO PUSH2 0x24B JUMPI PUSH1 0x0 DUP1 REVERT JUMPDEST POP PUSH2 0x1B3 PUSH2 0x10A7 JUMP JUMPDEST CALLVALUE DUP1 ISZERO PUSH2 0x260 JUMPI PUSH1 0x0 DUP1 REVERT JUMPDEST POP PUSH2 0x1B3 PUSH2 0x10CB JUMP JUMPDEST PUSH2 0x144 PUSH2 0x277 CALLDATASIZE PUSH1 0x4 PUSH2 0x292F JUMP JUMPDEST PUSH2 0x10EF JUMP JUMPDEST CALLVALUE DUP1 ISZERO PUSH2 0x288 JUMPI PUSH1 0x0 DUP1 REVERT JUMPDEST POP PUSH2 0x191 PUSH2 0x189B JUMP JUMPDEST CALLVALUE DUP1 ISZERO PUSH2 0x29D JUMPI PUSH1 0x0 DUP1 REVERT JUMPDEST POP PUSH2 0x17A PUSH2 0x2AC CALLDATASIZE PUSH1 0x4 PUSH2 0x2AF9 JUMP JUMPDEST PUSH2 0x18BF JUMP JUMPDEST CALLVALUE DUP1 ISZERO PUSH2 0x2BD JUMPI PUSH1 0x0 DUP1 REVERT JUMPDEST POP PUSH2 0x17A PUSH2 0x2CC CALLDATASIZE PUSH1 0x4 PUSH2 0x2AF9 JUMP JUMPDEST PUSH2 0x1B48 JUMP JUMPDEST CALLVALUE DUP1 ISZERO PUSH2 0x2DD JUMPI PUSH1 0x0 DUP1 REVERT JUMPDEST POP PUSH2 0x1B3 PUSH2 0x1BBD JUMP JUMPDEST CALLVALUE DUP1 ISZERO PUSH2 0x2F2 JUMPI PUSH1 0x0 DUP1 REVERT JUMPDEST POP PUSH2 0x144 PUSH2 0x1BE1 JUMP JUMPDEST CALLVALUE DUP1 ISZERO PUSH2 0x307 JUMPI PUSH1 0x0 DUP1 REVERT JUMPDEST POP PUSH2 0x17A PUSH2 0x316 CALLDATASIZE PUSH1 0x4 PUSH2 0x2A5A JUMP JUMPDEST PUSH2 0x1C05 JUMP JUMPDEST CALLVALUE DUP1 ISZERO PUSH2 0x327 JUMPI PUSH1 0x0 DUP1 REVERT JUMPDEST POP PUSH2 0x144 PUSH2 0x1C7C JUMP JUMPDEST CALLVALUE DUP1 ISZERO PUSH2 0x33C JUMPI PUSH1 0x0 DUP1 REVERT JUMPDEST POP PUSH2 0x350 PUSH2 0x34B CALLDATASIZE PUSH1 0x4 PUSH2 0x2AF9 JUMP JUMPDEST PUSH2 0x1CA0 JUMP JUMPDEST PUSH1 0x40 MLOAD PUSH2 0x151 SWAP2 SWAP1 PUSH2 0x3350 JUMP JUMPDEST PUSH1 0x1 SLOAD DUP2 JUMP JUMPDEST PUSH1 0x0 DUP2 DUP2 MSTORE PUSH1 0x2 PUSH1 0x20 MSTORE PUSH1 0x40 SWAP1 KECCAK256 CALLER PUSH1 0x1 PUSH1 0x1 PUSH1 0xA0 SHL SUB PUSH32 0x0 AND EQ PUSH2 0x3C2 JUMPI PUSH1 0x40 MLOAD PUSH3 0x461BCD PUSH1 0xE5 SHL DUP2 MSTORE PUSH1 0x4 ADD PUSH2 0x3B9 SWAP1 PUSH2 0x2F76 JUMP JUMPDEST PUSH1 0x40 MLOAD DUP1 SWAP2 SUB SWAP1 REVERT JUMPDEST DUP1 PUSH1 0x9 ADD SLOAD TIMESTAMP GT PUSH2 0x3E5 JUMPI PUSH1 0x40 MLOAD PUSH3 0x461BCD PUSH1 0xE5 SHL DUP2 MSTORE PUSH1 0x4 ADD PUSH2 0x3B9 SWAP1 PUSH2 0x30BC JUMP JUMPDEST PUSH1 0xC DUP2 ADD SLOAD PUSH1 0x1 PUSH1 0xA0 SHL SWAP1 DIV PUSH1 0xFF AND ISZERO PUSH2 0x411 JUMPI PUSH1 0x40 MLOAD PUSH3 0x461BCD PUSH1 0xE5 SHL DUP2 MSTORE PUSH1 0x4 ADD PUSH2 0x3B9 SWAP1 PUSH2 0x2FFC JUMP JUMPDEST DUP1 SLOAD PUSH1 0x1 DUP3 ADD SLOAD PUSH1 0x2 DUP4 ADD SLOAD PUSH1 0x3 DUP5 ADD SLOAD PUSH1 0xC DUP6 ADD DUP1 SLOAD PUSH1 0xFF PUSH1 0xA0 SHL NOT AND PUSH1 0x1 PUSH1 0xA0 SHL OR SWAP1 SSTORE PUSH1 0x1 PUSH1 0x1 PUSH1 0xA0 SHL SUB PUSH2 0x100 SWAP1 SWAP5 DIV DUP5 AND SWAP4 SWAP3 SWAP1 SWAP3 AND SWAP2 DUP4 PUSH2 0x481 JUMPI PUSH2 0x47C PUSH32 0x0 DUP4 PUSH2 0x1D80 JUMP JUMPDEST PUSH2 0x4AC JUMP JUMPDEST PUSH2 0x4AC DUP5 PUSH32 0x0 DUP5 PUSH2 0x1E12 JUMP JUMPDEST PUSH2 0x4D7 DUP4 PUSH32 0x0 DUP4 PUSH2 0x1E12 JUMP JUMPDEST PUSH1 0x40 MLOAD DUP7 SWAP1 PUSH32 0x3F9D01B8340245EA975087559A7911155F1B300F5B19AA35FCC67D4ADF962C85 SWAP1 PUSH1 0x0 SWAP1 LOG2 POP POP POP POP POP POP JUMP JUMPDEST PUSH32 0x0 DUP2 JUMP JUMPDEST PUSH32 0x0 DUP2 JUMP JUMPDEST PUSH32 0x0 DUP2 JUMP JUMPDEST PUSH32 0x0 DUP2 JUMP JUMPDEST PUSH1 0x0 PUSH32 0x0 PUSH1 0x1 PUSH1 0x1 PUSH1 0xA0 SHL SUB AND DUP3 PUSH1 0x1 PUSH1 0x1 PUSH1 0xA0 SHL SUB AND EQ DUP1 PUSH2 0x60D JUMPI POP PUSH32 0x0 PUSH1 0x1 PUSH1 0x1 PUSH1 0xA0 SHL SUB AND DUP3 PUSH1 0x1 PUSH1 0x1 PUSH1 0xA0 SHL SUB AND EQ JUMPDEST PUSH2 0x629 JUMPI PUSH1 0x40 MLOAD PUSH3 0x461BCD PUSH1 0xE5 SHL DUP2 MSTORE PUSH1 0x4 ADD PUSH2 0x3B9 SWAP1 PUSH2 0x2E1B JUMP JUMPDEST CALLER PUSH1 0x1 PUSH1 0x1 PUSH1 0xA0 SHL SUB PUSH32 0x0 AND EQ PUSH2 0x671 JUMPI PUSH1 0x40 MLOAD PUSH3 0x461BCD PUSH1 0xE5 SHL DUP2 MSTORE PUSH1 0x4 ADD PUSH2 0x3B9 SWAP1 PUSH2 0x2F76 JUMP JUMPDEST DUP11 PUSH1 0x1 PUSH1 0x1 PUSH1 0xA0 SHL SUB AND DUP13 PUSH1 0x1 PUSH1 0x1 PUSH1 0xA0 SHL SUB AND EQ ISZERO PUSH2 0x6A3 JUMPI PUSH1 0x40 MLOAD PUSH3 0x461BCD PUSH1 0xE5 SHL DUP2 MSTORE PUSH1 0x4 ADD PUSH2 0x3B9 SWAP1 PUSH2 0x2DE4 JUMP JUMPDEST DUP11 PUSH1 0x1 PUSH1 0x1 PUSH1 0xA0 SHL SUB AND DUP13 PUSH1 0x1 PUSH1 0x1 PUSH1 0xA0 SHL SUB AND LT PUSH2 0x6D4 JUMPI PUSH1 0x40 MLOAD PUSH3 0x461BCD PUSH1 0xE5 SHL DUP2 MSTORE PUSH1 0x4 ADD PUSH2 0x3B9 SWAP1 PUSH2 0x3187 JUMP JUMPDEST PUSH1 0x0 DUP10 GT DUP1 ISZERO PUSH2 0x6E4 JUMPI POP PUSH1 0x0 DUP9 GT JUMPDEST DUP1 ISZERO PUSH2 0x6F0 JUMPI POP PUSH1 0x0 DUP11 GT JUMPDEST PUSH2 0x70C JUMPI PUSH1 0x40 MLOAD PUSH3 0x461BCD PUSH1 0xE5 SHL DUP2 MSTORE PUSH1 0x4 ADD PUSH2 0x3B9 SWAP1 PUSH2 0x2EEC JUMP JUMPDEST PUSH32 0x0 DUP8 GT ISZERO PUSH2 0x74C JUMPI PUSH1 0x40 MLOAD PUSH3 0x461BCD PUSH1 0xE5 SHL DUP2 MSTORE PUSH1 0x4 ADD PUSH2 0x3B9 SWAP1 PUSH2 0x31CB JUMP JUMPDEST DUP3 TIMESTAMP GT ISZERO PUSH2 0x76C JUMPI PUSH1 0x40 MLOAD PUSH3 0x461BCD PUSH1 0xE5 SHL DUP2 MSTORE PUSH1 0x4 ADD PUSH2 0x3B9 SWAP1 PUSH2 0x3146 JUMP JUMPDEST PUSH1 0x1E DUP5 GT PUSH2 0x78C JUMPI PUSH1 0x40 MLOAD PUSH3 0x461BCD PUSH1 0xE5 SHL DUP2 MSTORE PUSH1 0x4 ADD PUSH2 0x3B9 SWAP1 PUSH2 0x330D JUMP JUMPDEST PUSH1 0x0 PUSH2 0x799 DUP14 DUP14 DUP6 PUSH2 0x1EF9 JUMP JUMPDEST SWAP1 POP PUSH2 0x7A3 PUSH2 0x2040 JUMP JUMPDEST SWAP2 POP PUSH1 0x40 MLOAD DUP1 PUSH2 0x1E0 ADD PUSH1 0x40 MSTORE DUP1 PUSH32 0x0 PUSH1 0xFF AND DUP2 MSTORE PUSH1 0x20 ADD DUP15 PUSH1 0x1 PUSH1 0x1 PUSH1 0xA0 SHL SUB AND DUP2 MSTORE PUSH1 0x20 ADD DUP14 PUSH1 0x1 PUSH1 0x1 PUSH1 0xA0 SHL SUB AND DUP2 MSTORE PUSH1 0x20 ADD DUP12 DUP2 MSTORE PUSH1 0x20 ADD DUP11 DUP2 MSTORE PUSH1 0x20 ADD DUP13 DUP2 MSTORE PUSH1 0x20 ADD DUP10 DUP2 MSTORE PUSH1 0x20 ADD DUP9 DUP2 MSTORE PUSH1 0x20 ADD DUP8 DUP2 MSTORE PUSH1 0x20 ADD DUP3 PUSH1 0x1 PUSH1 0x1 PUSH1 0xA0 SHL SUB AND DUP2 MSTORE PUSH1 0x20 ADD DUP6 DUP2 MSTORE PUSH1 0x20 ADD DUP7 DUP2 MSTORE PUSH1 0x20 ADD PUSH1 0x0 DUP2 MSTORE PUSH1 0x20 ADD DUP5 PUSH1 0x1 PUSH1 0x1 PUSH1 0xA0 SHL SUB AND DUP2 MSTORE PUSH1 0x20 ADD PUSH1 0x0 ISZERO ISZERO DUP2 MSTORE POP PUSH1 0x2 PUSH1 0x0 DUP5 DUP2 MSTORE PUSH1 0x20 ADD SWAP1 DUP2 MSTORE PUSH1 0x20 ADD PUSH1 0x0 KECCAK256 PUSH1 0x0 DUP3 ADD MLOAD DUP2 PUSH1 0x0 ADD PUSH1 0x0 PUSH2 0x100 EXP DUP2 SLOAD DUP2 PUSH1 0xFF MUL NOT AND SWAP1 DUP4 PUSH1 0xFF AND MUL OR SWAP1 SSTORE POP PUSH1 0x20 DUP3 ADD MLOAD DUP2 PUSH1 0x0 ADD PUSH1 0x1 PUSH2 0x100 EXP DUP2 SLOAD DUP2 PUSH1 0x1 PUSH1 0x1 PUSH1 0xA0 SHL SUB MUL NOT AND SWAP1 DUP4 PUSH1 0x1 PUSH1 0x1 PUSH1 0xA0 SHL SUB AND MUL OR SWAP1 SSTORE POP PUSH1 0x40 DUP3 ADD MLOAD DUP2 PUSH1 0x1 ADD PUSH1 0x0 PUSH2 0x100 EXP DUP2 SLOAD DUP2 PUSH1 0x1 PUSH1 0x1 PUSH1 0xA0 SHL SUB MUL NOT AND SWAP1 DUP4 PUSH1 0x1 PUSH1 0x1 PUSH1 0xA0 SHL SUB AND MUL OR SWAP1 SSTORE POP PUSH1 0x60 DUP3 ADD MLOAD DUP2 PUSH1 0x2 ADD SSTORE PUSH1 0x80 DUP3 ADD MLOAD DUP2 PUSH1 0x3 ADD SSTORE PUSH1 0xA0 DUP3 ADD MLOAD DUP2 PUSH1 0x4 ADD SSTORE PUSH1 0xC0 DUP3 ADD MLOAD DUP2 PUSH1 0x5 ADD SSTORE PUSH1 0xE0 DUP3 ADD MLOAD DUP2 PUSH1 0x6 ADD SSTORE PUSH2 0x100 DUP3 ADD MLOAD DUP2 PUSH1 0x7 ADD SSTORE PUSH2 0x120 DUP3 ADD MLOAD DUP2 PUSH1 0x8 ADD PUSH1 0x0 PUSH2 0x100 EXP DUP2 SLOAD DUP2 PUSH1 0x1 PUSH1 0x1 PUSH1 0xA0 SHL SUB MUL NOT AND SWAP1 DUP4 PUSH1 0x1 PUSH1 0x1 PUSH1 0xA0 SHL SUB AND MUL OR SWAP1 SSTORE POP PUSH2 0x140 DUP3 ADD MLOAD DUP2 PUSH1 0x9 ADD SSTORE PUSH2 0x160 DUP3 ADD MLOAD DUP2 PUSH1 0xA ADD SSTORE PUSH2 0x180 DUP3 ADD MLOAD DUP2 PUSH1 0xB ADD SSTORE PUSH2 0x1A0 DUP3 ADD MLOAD DUP2 PUSH1 0xC ADD PUSH1 0x0 PUSH2 0x100 EXP DUP2 SLOAD DUP2 PUSH1 0x1 PUSH1 0x1 PUSH1 0xA0 SHL SUB MUL NOT AND SWAP1 DUP4 PUSH1 0x1 PUSH1 0x1 PUSH1 0xA0 SHL SUB AND MUL OR SWAP1 SSTORE POP PUSH2 0x1C0 DUP3 ADD MLOAD DUP2 PUSH1 0xC ADD PUSH1 0x14 PUSH2 0x100 EXP DUP2 SLOAD DUP2 PUSH1 0xFF MUL NOT AND SWAP1 DUP4 ISZERO ISZERO MUL OR SWAP1 SSTORE POP SWAP1 POP POP PUSH1 0x0 PUSH1 0x1 PUSH1 0x1 PUSH1 0xA0 SHL SUB AND DUP14 PUSH1 0x1 PUSH1 0x1 PUSH1 0xA0 SHL SUB AND EQ PUSH2 0x9E0 JUMPI DUP13 PUSH2 0xA02 JUMP JUMPDEST PUSH32 0x0 JUMPDEST SWAP13 POP PUSH1 0x0 PUSH2 0xA31 PUSH32 0x0 DUP16 DUP16 PUSH2 0x204D JUMP JUMPDEST SWAP1 POP PUSH1 0x0 DUP1 DUP3 PUSH1 0x1 PUSH1 0x1 PUSH1 0xA0 SHL SUB AND PUSH4 0x902F1AC PUSH1 0x40 MLOAD DUP2 PUSH4 0xFFFFFFFF AND PUSH1 0xE0 SHL DUP2 MSTORE PUSH1 0x4 ADD PUSH1 0x60 PUSH1 0x40 MLOAD DUP1 DUP4 SUB DUP2 DUP7 DUP1 EXTCODESIZE ISZERO DUP1 ISZERO PUSH2 0xA6F JUMPI PUSH1 0x0 DUP1 REVERT JUMPDEST POP GAS STATICCALL ISZERO DUP1 ISZERO PUSH2 0xA83 JUMPI RETURNDATASIZE PUSH1 0x0 DUP1 RETURNDATACOPY RETURNDATASIZE PUSH1 0x0 REVERT JUMPDEST POP POP POP POP PUSH1 0x40 MLOAD RETURNDATASIZE PUSH1 0x1F NOT PUSH1 0x1F DUP3 ADD AND DUP3 ADD DUP1 PUSH1 0x40 MSTORE POP DUP2 ADD SWAP1 PUSH2 0xAA7 SWAP2 SWAP1 PUSH2 0x2AA5 JUMP JUMPDEST POP PUSH1 0x1 PUSH1 0x1 PUSH1 0x70 SHL SUB AND SWAP2 POP PUSH1 0x1 PUSH1 0x1 PUSH1 0x70 SHL SUB AND SWAP2 POP PUSH1 0x0 PUSH2 0xACD DUP15 DUP15 DUP6 DUP6 DUP14 PUSH2 0x20BD JUMP JUMPDEST PUSH1 0x0 SLOAD PUSH1 0x40 MLOAD PUSH4 0x6649D67 PUSH1 0xE0 SHL DUP2 MSTORE SWAP2 SWAP3 POP PUSH1 0x1 PUSH1 0x1 PUSH1 0xA0 SHL SUB AND SWAP1 PUSH4 0x6649D67 SWAP1 PUSH2 0xB00 SWAP1 DUP5 SWAP1 DUP10 SWAP1 PUSH1 0x4 ADD PUSH2 0x3437 JUMP JUMPDEST PUSH1 0x20 PUSH1 0x40 MLOAD DUP1 DUP4 SUB DUP2 PUSH1 0x0 DUP8 DUP1 EXTCODESIZE ISZERO DUP1 ISZERO PUSH2 0xB1A JUMPI PUSH1 0x0 DUP1 REVERT JUMPDEST POP GAS CALL ISZERO DUP1 ISZERO PUSH2 0xB2E JUMPI RETURNDATASIZE PUSH1 0x0 DUP1 RETURNDATACOPY RETURNDATASIZE PUSH1 0x0 REVERT JUMPDEST POP POP POP POP PUSH1 0x40 MLOAD RETURNDATASIZE PUSH1 0x1F NOT PUSH1 0x1F DUP3 ADD AND DUP3 ADD DUP1 PUSH1 0x40 MSTORE POP DUP2 ADD SWAP1 PUSH2 0xB52 SWAP2 SWAP1 PUSH2 0x2B11 JUMP JUMPDEST PUSH1 0x0 DUP8 DUP2 MSTORE PUSH1 0x2 PUSH1 0x20 MSTORE PUSH1 0x40 DUP1 DUP3 KECCAK256 PUSH1 0xB ADD SWAP3 SWAP1 SWAP3 SSTORE SWAP1 MLOAD PUSH1 0xFF PUSH32 0x0 AND SWAP2 DUP9 SWAP2 PUSH32 0x3D87A0DB9F255A83B85D64D1E31D04CA94AC564C50B44F6BA9D52A731E441DC SWAP2 SWAP1 LOG3 POP POP POP POP POP SWAP12 SWAP11 POP POP POP POP POP POP POP POP POP POP POP JUMP JUMPDEST PUSH32 0x0 DUP2 JUMP JUMPDEST PUSH1 0x0 DUP2 DUP2 MSTORE PUSH1 0x2 PUSH1 0x20 MSTORE PUSH1 0x40 SWAP1 KECCAK256 PUSH1 0x1 SLOAD DUP3 LT PUSH2 0xC1C JUMPI PUSH1 0x40 MLOAD PUSH3 0x461BCD PUSH1 0xE5 SHL DUP2 MSTORE PUSH1 0x4 ADD PUSH2 0x3B9 SWAP1 PUSH2 0x2D7F JUMP JUMPDEST PUSH1 0xC DUP2 ADD SLOAD PUSH1 0x1 PUSH1 0xA0 SHL SWAP1 DIV PUSH1 0xFF AND ISZERO PUSH2 0xC48 JUMPI PUSH1 0x40 MLOAD PUSH3 0x461BCD PUSH1 0xE5 SHL DUP2 MSTORE PUSH1 0x4 ADD PUSH2 0x3B9 SWAP1 PUSH2 0x2FFC JUMP JUMPDEST PUSH1 0x0 SLOAD PUSH1 0xB DUP3 ADD SLOAD PUSH1 0x40 MLOAD PUSH4 0x25FA7003 PUSH1 0xE0 SHL DUP2 MSTORE PUSH1 0x1 PUSH1 0x1 PUSH1 0xA0 SHL SUB SWAP1 SWAP3 AND SWAP2 PUSH4 0x25FA7003 SWAP2 PUSH2 0xC7B SWAP2 PUSH1 0x4 ADD PUSH2 0x342E JUMP JUMPDEST PUSH1 0x20 PUSH1 0x40 MLOAD DUP1 DUP4 SUB DUP2 DUP7 DUP1 EXTCODESIZE ISZERO DUP1 ISZERO PUSH2 0xC93 JUMPI PUSH1 0x0 DUP1 REVERT JUMPDEST POP GAS STATICCALL ISZERO DUP1 ISZERO PUSH2 0xCA7 JUMPI RETURNDATASIZE PUSH1 0x0 DUP1 RETURNDATACOPY RETURNDATASIZE PUSH1 0x0 REVERT JUMPDEST POP POP POP POP PUSH1 0x40 MLOAD RETURNDATASIZE PUSH1 0x1F NOT PUSH1 0x1F DUP3 ADD AND DUP3 ADD DUP1 PUSH1 0x40 MSTORE POP DUP2 ADD SWAP1 PUSH2 0xCCB SWAP2 SWAP1 PUSH2 0x2A85 JUMP JUMPDEST PUSH2 0xCE7 JUMPI PUSH1 0x40 MLOAD PUSH3 0x461BCD PUSH1 0xE5 SHL DUP2 MSTORE PUSH1 0x4 ADD PUSH2 0x3B9 SWAP1 PUSH2 0x3033 JUMP JUMPDEST DUP1 PUSH1 0x9 ADD SLOAD TIMESTAMP GT ISZERO PUSH2 0xD0B JUMPI PUSH1 0x40 MLOAD PUSH3 0x461BCD PUSH1 0xE5 SHL DUP2 MSTORE PUSH1 0x4 ADD PUSH2 0x3B9 SWAP1 PUSH2 0x3146 JUMP JUMPDEST DUP1 SLOAD PUSH1 0x1 DUP3 ADD SLOAD PUSH1 0x0 DUP1 SLOAD PUSH1 0xB DUP6 ADD SLOAD PUSH2 0x100 SWAP1 SWAP5 DIV PUSH1 0x1 PUSH1 0x1 PUSH1 0xA0 SHL SUB SWAP1 DUP2 AND SWAP5 SWAP4 DUP2 AND SWAP4 SWAP2 AND SWAP1 PUSH4 0x4023282B SWAP1 DUP6 ISZERO PUSH2 0xD46 JUMPI DUP6 PUSH2 0xDD7 JUMP JUMPDEST PUSH32 0x0 PUSH1 0x1 PUSH1 0x1 PUSH1 0xA0 SHL SUB AND PUSH4 0xAD5C4648 PUSH1 0x40 MLOAD DUP2 PUSH4 0xFFFFFFFF AND PUSH1 0xE0 SHL DUP2 MSTORE PUSH1 0x4 ADD PUSH1 0x20 PUSH1 0x40 MLOAD DUP1 DUP4 SUB DUP2 DUP7 DUP1 EXTCODESIZE ISZERO DUP1 ISZERO PUSH2 0xD9F JUMPI PUSH1 0x0 DUP1 REVERT JUMPDEST POP GAS STATICCALL ISZERO DUP1 ISZERO PUSH2 0xDB3 JUMPI RETURNDATASIZE PUSH1 0x0 DUP1 RETURNDATACOPY RETURNDATASIZE PUSH1 0x0 REVERT JUMPDEST POP POP POP POP PUSH1 0x40 MLOAD RETURNDATASIZE PUSH1 0x1F NOT PUSH1 0x1F DUP3 ADD AND DUP3 ADD DUP1 PUSH1 0x40 MSTORE POP DUP2 ADD SWAP1 PUSH2 0xDD7 SWAP2 SWAP1 PUSH2 0x290C JUMP JUMPDEST DUP8 PUSH1 0x2 ADD SLOAD PUSH1 0x40 MLOAD DUP5 PUSH4 0xFFFFFFFF AND PUSH1 0xE0 SHL DUP2 MSTORE PUSH1 0x4 ADD PUSH2 0xDFA SWAP4 SWAP3 SWAP2 SWAP1 PUSH2 0x344E JUMP JUMPDEST PUSH1 0x20 PUSH1 0x40 MLOAD DUP1 DUP4 SUB DUP2 DUP7 DUP1 EXTCODESIZE ISZERO DUP1 ISZERO PUSH2 0xE12 JUMPI PUSH1 0x0 DUP1 REVERT JUMPDEST POP GAS STATICCALL ISZERO DUP1 ISZERO PUSH2 0xE26 JUMPI RETURNDATASIZE PUSH1 0x0 DUP1 RETURNDATACOPY RETURNDATASIZE PUSH1 0x0 REVERT JUMPDEST POP POP POP POP PUSH1 0x40 MLOAD RETURNDATASIZE PUSH1 0x1F NOT PUSH1 0x1F DUP3 ADD AND DUP3 ADD DUP1 PUSH1 0x40 MSTORE POP DUP2 ADD SWAP1 PUSH2 0xE4A SWAP2 SWAP1 PUSH2 0x2B11 JUMP JUMPDEST PUSH1 0x0 DUP1 SLOAD PUSH1 0xB DUP8 ADD SLOAD PUSH1 0x3 DUP9 ADD SLOAD PUSH1 0x40 MLOAD PUSH4 0x4023282B PUSH1 0xE0 SHL DUP2 MSTORE SWAP5 SWAP6 POP SWAP3 SWAP4 PUSH1 0x1 PUSH1 0x1 PUSH1 0xA0 SHL SUB SWAP1 SWAP3 AND SWAP3 PUSH4 0x4023282B SWAP3 PUSH2 0xE8B SWAP3 SWAP2 DUP9 SWAP2 PUSH1 0x4 ADD PUSH2 0x344E JUMP JUMPDEST PUSH1 0x20 PUSH1 0x40 MLOAD DUP1 DUP4 SUB DUP2 DUP7 DUP1 EXTCODESIZE ISZERO DUP1 ISZERO PUSH2 0xEA3 JUMPI PUSH1 0x0 DUP1 REVERT JUMPDEST POP GAS STATICCALL ISZERO DUP1 ISZERO PUSH2 0xEB7 JUMPI RETURNDATASIZE PUSH1 0x0 DUP1 RETURNDATACOPY RETURNDATASIZE PUSH1 0x0 REVERT JUMPDEST POP POP POP POP PUSH1 0x40 MLOAD RETURNDATASIZE PUSH1 0x1F NOT PUSH1 0x1F DUP3 ADD AND DUP3 ADD DUP1 PUSH1 0x40 MSTORE POP DUP2 ADD SWAP1 PUSH2 0xEDB SWAP2 SWAP1 PUSH2 0x2B11 JUMP JUMPDEST SWAP1 POP DUP5 PUSH1 0x2 ADD SLOAD DUP2 GT PUSH2 0xEF4 JUMPI DUP5 PUSH1 0x3 ADD SLOAD SWAP2 POP PUSH2 0xEFB JUMP JUMPDEST POP PUSH1 0x2 DUP5 ADD SLOAD JUMPDEST PUSH1 0x0 PUSH2 0xF4E PUSH32 0x0 PUSH2 0xF38 DUP9 PUSH1 0x5 ADD SLOAD DUP6 PUSH2 0x21A4 SWAP1 SWAP2 SWAP1 PUSH4 0xFFFFFFFF AND JUMP JUMPDEST DUP2 PUSH2 0xF3F JUMPI INVALID JUMPDEST DUP5 SWAP2 SWAP1 DIV PUSH4 0xFFFFFFFF PUSH2 0x21E1 AND JUMP JUMPDEST SWAP1 POP PUSH1 0x0 PUSH2 0xFA3 PUSH32 0x0 PUSH2 0xF8D DUP10 PUSH1 0x5 ADD SLOAD DUP8 PUSH2 0x21A4 SWAP1 SWAP2 SWAP1 PUSH4 0xFFFFFFFF AND JUMP JUMPDEST DUP2 PUSH2 0xF94 JUMPI INVALID JUMPDEST DUP7 SWAP2 SWAP1 DIV PUSH4 0xFFFFFFFF PUSH2 0x21E1 AND JUMP JUMPDEST PUSH1 0xC DUP9 ADD DUP1 SLOAD PUSH1 0xFF PUSH1 0xA0 SHL NOT AND PUSH1 0x1 PUSH1 0xA0 SHL OR SWAP1 SSTORE DUP8 SLOAD SWAP1 SWAP2 POP PUSH1 0xFF SWAP1 DUP2 AND PUSH32 0x0 SWAP1 SWAP2 AND EQ ISZERO PUSH2 0xFFF JUMPI PUSH2 0xFFA DUP7 DUP7 DUP6 DUP8 DUP7 DUP7 PUSH2 0x2204 JUMP JUMPDEST PUSH2 0x1072 JUMP JUMPDEST DUP7 SLOAD PUSH32 0x0 PUSH1 0xFF SWAP1 DUP2 AND SWAP2 AND EQ ISZERO PUSH2 0x1072 JUMPI PUSH1 0x0 PUSH2 0x105C DUP8 DUP8 PUSH32 0x0 PUSH2 0x1EF9 JUMP JUMPDEST SWAP1 POP PUSH2 0x1070 DUP8 DUP8 DUP4 DUP12 PUSH1 0x4 ADD SLOAD DUP8 DUP8 PUSH2 0x2419 JUMP JUMPDEST POP JUMPDEST PUSH1 0x40 MLOAD DUP9 SWAP1 PUSH32 0x524F8E6C94465B4AB34A95B899F86628F3F6445AE120C4DACC9B3A67011DC259 SWAP1 PUSH1 0x0 SWAP1 LOG2 POP POP POP POP POP POP POP POP JUMP JUMPDEST PUSH32 0x0 DUP2 JUMP JUMPDEST PUSH32 0x0 DUP2 JUMP JUMPDEST PUSH1 0x0 PUSH32 0x0 PUSH1 0x1 PUSH1 0x1 PUSH1 0xA0 SHL SUB AND DUP3 PUSH1 0x1 PUSH1 0x1 PUSH1 0xA0 SHL SUB AND EQ DUP1 PUSH2 0x1162 JUMPI POP PUSH32 0x0 PUSH1 0x1 PUSH1 0x1 PUSH1 0xA0 SHL SUB AND DUP3 PUSH1 0x1 PUSH1 0x1 PUSH1 0xA0 SHL SUB AND EQ JUMPDEST PUSH2 0x117E JUMPI PUSH1 0x40 MLOAD PUSH3 0x461BCD PUSH1 0xE5 SHL DUP2 MSTORE PUSH1 0x4 ADD PUSH2 0x3B9 SWAP1 PUSH2 0x2E1B JUMP JUMPDEST CALLER PUSH1 0x1 PUSH1 0x1 PUSH1 0xA0 SHL SUB PUSH32 0x0 AND EQ PUSH2 0x11C6 JUMPI PUSH1 0x40 MLOAD PUSH3 0x461BCD PUSH1 0xE5 SHL DUP2 MSTORE PUSH1 0x4 ADD PUSH2 0x3B9 SWAP1 PUSH2 0x2F76 JUMP JUMPDEST DUP10 PUSH1 0x1 PUSH1 0x1 PUSH1 0xA0 SHL SUB AND DUP12 PUSH1 0x1 PUSH1 0x1 PUSH1 0xA0 SHL SUB AND EQ ISZERO PUSH2 0x11F8 JUMPI PUSH1 0x40 MLOAD PUSH3 0x461BCD PUSH1 0xE5 SHL DUP2 MSTORE PUSH1 0x4 ADD PUSH2 0x3B9 SWAP1 PUSH2 0x2DE4 JUMP JUMPDEST DUP10 PUSH1 0x1 PUSH1 0x1 PUSH1 0xA0 SHL SUB AND DUP12 PUSH1 0x1 PUSH1 0x1 PUSH1 0xA0 SHL SUB AND LT PUSH2 0x1229 JUMPI PUSH1 0x40 MLOAD PUSH3 0x461BCD PUSH1 0xE5 SHL DUP2 MSTORE PUSH1 0x4 ADD PUSH2 0x3B9 SWAP1 PUSH2 0x3187 JUMP JUMPDEST PUSH1 0x0 DUP10 GT DUP1 ISZERO PUSH2 0x1239 JUMPI POP PUSH1 0x0 DUP9 GT JUMPDEST PUSH2 0x1255 JUMPI PUSH1 0x40 MLOAD PUSH3 0x461BCD PUSH1 0xE5 SHL DUP2 MSTORE PUSH1 0x4 ADD PUSH2 0x3B9 SWAP1 PUSH2 0x3101 JUMP JUMPDEST PUSH32 0x0 DUP8 GT ISZERO PUSH2 0x1295 JUMPI PUSH1 0x40 MLOAD PUSH3 0x461BCD PUSH1 0xE5 SHL DUP2 MSTORE PUSH1 0x4 ADD PUSH2 0x3B9 SWAP1 PUSH2 0x31CB JUMP JUMPDEST DUP3 TIMESTAMP GT ISZERO PUSH2 0x12B5 JUMPI PUSH1 0x40 MLOAD PUSH3 0x461BCD PUSH1 0xE5 SHL DUP2 MSTORE PUSH1 0x4 ADD PUSH2 0x3B9 SWAP1 PUSH2 0x3146 JUMP JUMPDEST PUSH1 0x1E DUP5 GT PUSH2 0x12D5 JUMPI PUSH1 0x40 MLOAD PUSH3 0x461BCD PUSH1 0xE5 SHL DUP2 MSTORE PUSH1 0x4 ADD PUSH2 0x3B9 SWAP1 PUSH2 0x330D JUMP JUMPDEST PUSH1 0x1 PUSH1 0x1 PUSH1 0xA0 SHL SUB DUP12 AND PUSH2 0x1308 JUMPI DUP9 SELFBALANCE LT ISZERO PUSH2 0x1303 JUMPI PUSH1 0x40 MLOAD PUSH3 0x461BCD PUSH1 0xE5 SHL DUP2 MSTORE PUSH1 0x4 ADD PUSH2 0x3B9 SWAP1 PUSH2 0x2F35 JUMP JUMPDEST PUSH2 0x13A4 JUMP JUMPDEST PUSH1 0x40 MLOAD PUSH4 0x70A08231 PUSH1 0xE0 SHL DUP2 MSTORE DUP10 SWAP1 PUSH1 0x1 PUSH1 0x1 PUSH1 0xA0 SHL SUB DUP14 AND SWAP1 PUSH4 0x70A08231 SWAP1 PUSH2 0x1336 SWAP1 ADDRESS SWAP1 PUSH1 0x4 ADD PUSH2 0x2C49 JUMP JUMPDEST PUSH1 0x20 PUSH1 0x40 MLOAD DUP1 DUP4 SUB DUP2 DUP7 DUP1 EXTCODESIZE ISZERO DUP1 ISZERO PUSH2 0x134E JUMPI PUSH1 0x0 DUP1 REVERT JUMPDEST POP GAS STATICCALL ISZERO DUP1 ISZERO PUSH2 0x1362 JUMPI RETURNDATASIZE PUSH1 0x0 DUP1 RETURNDATACOPY RETURNDATASIZE PUSH1 0x0 REVERT JUMPDEST POP POP POP POP PUSH1 0x40 MLOAD RETURNDATASIZE PUSH1 0x1F NOT PUSH1 0x1F DUP3 ADD AND DUP3 ADD DUP1 PUSH1 0x40 MSTORE POP DUP2 ADD SWAP1 PUSH2 0x1386 SWAP2 SWAP1 PUSH2 0x2B11 JUMP JUMPDEST LT ISZERO PUSH2 0x13A4 JUMPI PUSH1 0x40 MLOAD PUSH3 0x461BCD PUSH1 0xE5 SHL DUP2 MSTORE PUSH1 0x4 ADD PUSH2 0x3B9 SWAP1 PUSH2 0x2FB7 JUMP JUMPDEST PUSH1 0x40 MLOAD PUSH4 0x70A08231 PUSH1 0xE0 SHL DUP2 MSTORE DUP9 SWAP1 PUSH1 0x1 PUSH1 0x1 PUSH1 0xA0 SHL SUB DUP13 AND SWAP1 PUSH4 0x70A08231 SWAP1 PUSH2 0x13D2 SWAP1 ADDRESS SWAP1 PUSH1 0x4 ADD PUSH2 0x2C49 JUMP JUMPDEST PUSH1 0x20 PUSH1 0x40 MLOAD DUP1 DUP4 SUB DUP2 DUP7 DUP1 EXTCODESIZE ISZERO DUP1 ISZERO PUSH2 0x13EA JUMPI PUSH1 0x0 DUP1 REVERT JUMPDEST POP GAS STATICCALL ISZERO DUP1 ISZERO PUSH2 0x13FE JUMPI RETURNDATASIZE PUSH1 0x0 DUP1 RETURNDATACOPY RETURNDATASIZE PUSH1 0x0 REVERT JUMPDEST POP POP POP POP PUSH1 0x40 MLOAD RETURNDATASIZE PUSH1 0x1F NOT PUSH1 0x1F DUP3 ADD AND DUP3 ADD DUP1 PUSH1 0x40 MSTORE POP DUP2 ADD SWAP1 PUSH2 0x1422 SWAP2 SWAP1 PUSH2 0x2B11 JUMP JUMPDEST LT ISZERO PUSH2 0x1440 JUMPI PUSH1 0x40 MLOAD PUSH3 0x461BCD PUSH1 0xE5 SHL DUP2 MSTORE PUSH1 0x4 ADD PUSH2 0x3B9 SWAP1 PUSH2 0x3077 JUMP JUMPDEST PUSH1 0x0 PUSH2 0x144D DUP13 DUP13 DUP6 PUSH2 0x1EF9 JUMP JUMPDEST SWAP1 POP PUSH2 0x1457 PUSH2 0x2040 JUMP JUMPDEST SWAP2 POP PUSH1 0x40 MLOAD DUP1 PUSH2 0x1E0 ADD PUSH1 0x40 MSTORE DUP1 PUSH32 0x0 PUSH1 0xFF AND DUP2 MSTORE PUSH1 0x20 ADD DUP14 PUSH1 0x1 PUSH1 0x1 PUSH1 0xA0 SHL SUB AND DUP2 MSTORE PUSH1 0x20 ADD DUP13 PUSH1 0x1 PUSH1 0x1 PUSH1 0xA0 SHL SUB AND DUP2 MSTORE PUSH1 0x20 ADD DUP12 DUP2 MSTORE PUSH1 0x20 ADD DUP11 DUP2 MSTORE PUSH1 0x20 ADD PUSH1 0x0 DUP2 MSTORE PUSH1 0x20 ADD DUP10 DUP2 MSTORE PUSH1 0x20 ADD DUP9 DUP2 MSTORE PUSH1 0x20 ADD DUP8 DUP2 MSTORE PUSH1 0x20 ADD DUP3 PUSH1 0x1 PUSH1 0x1 PUSH1 0xA0 SHL SUB AND DUP2 MSTORE PUSH1 0x20 ADD DUP6 DUP2 MSTORE PUSH1 0x20 ADD DUP7 DUP2 MSTORE PUSH1 0x20 ADD PUSH1 0x0 DUP2 MSTORE PUSH1 0x20 ADD DUP5 PUSH1 0x1 PUSH1 0x1 PUSH1 0xA0 SHL SUB AND DUP2 MSTORE PUSH1 0x20 ADD PUSH1 0x0 ISZERO ISZERO DUP2 MSTORE POP PUSH1 0x2 PUSH1 0x0 DUP5 DUP2 MSTORE PUSH1 0x20 ADD SWAP1 DUP2 MSTORE PUSH1 0x20 ADD PUSH1 0x0 KECCAK256 PUSH1 0x0 DUP3 ADD MLOAD DUP2 PUSH1 0x0 ADD PUSH1 0x0 PUSH2 0x100 EXP DUP2 SLOAD DUP2 PUSH1 0xFF MUL NOT AND SWAP1 DUP4 PUSH1 0xFF AND MUL OR SWAP1 SSTORE POP PUSH1 0x20 DUP3 ADD MLOAD DUP2 PUSH1 0x0 ADD PUSH1 0x1 PUSH2 0x100 EXP DUP2 SLOAD DUP2 PUSH1 0x1 PUSH1 0x1 PUSH1 0xA0 SHL SUB MUL NOT AND SWAP1 DUP4 PUSH1 0x1 PUSH1 0x1 PUSH1 0xA0 SHL SUB AND MUL OR SWAP1 SSTORE POP PUSH1 0x40 DUP3 ADD MLOAD DUP2 PUSH1 0x1 ADD PUSH1 0x0 PUSH2 0x100 EXP DUP2 SLOAD DUP2 PUSH1 0x1 PUSH1 0x1 PUSH1 0xA0 SHL SUB MUL NOT AND SWAP1 DUP4 PUSH1 0x1 PUSH1 0x1 PUSH1 0xA0 SHL SUB AND MUL OR SWAP1 SSTORE POP PUSH1 0x60 DUP3 ADD MLOAD DUP2 PUSH1 0x2 ADD SSTORE PUSH1 0x80 DUP3 ADD MLOAD DUP2 PUSH1 0x3 ADD SSTORE PUSH1 0xA0 DUP3 ADD MLOAD DUP2 PUSH1 0x4 ADD SSTORE PUSH1 0xC0 DUP3 ADD MLOAD DUP2 PUSH1 0x5 ADD SSTORE PUSH1 0xE0 DUP3 ADD MLOAD DUP2 PUSH1 0x6 ADD SSTORE PUSH2 0x100 DUP3 ADD MLOAD DUP2 PUSH1 0x7 ADD SSTORE PUSH2 0x120 DUP3 ADD MLOAD DUP2 PUSH1 0x8 ADD PUSH1 0x0 PUSH2 0x100 EXP DUP2 SLOAD DUP2 PUSH1 0x1 PUSH1 0x1 PUSH1 0xA0 SHL SUB MUL NOT AND SWAP1 DUP4 PUSH1 0x1 PUSH1 0x1 PUSH1 0xA0 SHL SUB AND MUL OR SWAP1 SSTORE POP PUSH2 0x140 DUP3 ADD MLOAD DUP2 PUSH1 0x9 ADD SSTORE PUSH2 0x160 DUP3 ADD MLOAD DUP2 PUSH1 0xA ADD SSTORE PUSH2 0x180 DUP3 ADD MLOAD DUP2 PUSH1 0xB ADD SSTORE PUSH2 0x1A0 DUP3 ADD MLOAD DUP2 PUSH1 0xC ADD PUSH1 0x0 PUSH2 0x100 EXP DUP2 SLOAD DUP2 PUSH1 0x1 PUSH1 0x1 PUSH1 0xA0 SHL SUB MUL NOT AND SWAP1 DUP4 PUSH1 0x1 PUSH1 0x1 PUSH1 0xA0 SHL SUB AND MUL OR SWAP1 SSTORE POP PUSH2 0x1C0 DUP3 ADD MLOAD DUP2 PUSH1 0xC ADD PUSH1 0x14 PUSH2 0x100 EXP DUP2 SLOAD DUP2 PUSH1 0xFF MUL NOT AND SWAP1 DUP4 ISZERO ISZERO MUL OR SWAP1 SSTORE POP SWAP1 POP POP PUSH32 0x0 PUSH1 0xFF AND DUP3 PUSH32 0x3D87A0DB9F255A83B85D64D1E31D04CA94AC564C50B44F6BA9D52A731E441DC PUSH1 0x40 MLOAD PUSH1 0x40 MLOAD DUP1 SWAP2 SUB SWAP1 LOG3 PUSH1 0x0 DUP1 DUP3 PUSH1 0x1 PUSH1 0x1 PUSH1 0xA0 SHL SUB AND PUSH4 0x902F1AC PUSH1 0x40 MLOAD DUP2 PUSH4 0xFFFFFFFF AND PUSH1 0xE0 SHL DUP2 MSTORE PUSH1 0x4 ADD PUSH1 0x60 PUSH1 0x40 MLOAD DUP1 DUP4 SUB DUP2 DUP7 DUP1 EXTCODESIZE ISZERO DUP1 ISZERO PUSH2 0x1702 JUMPI PUSH1 0x0 DUP1 REVERT JUMPDEST POP GAS STATICCALL ISZERO DUP1 ISZERO PUSH2 0x1716 JUMPI RETURNDATASIZE PUSH1 0x0 DUP1 RETURNDATACOPY RETURNDATASIZE PUSH1 0x0 REVERT JUMPDEST POP POP POP POP PUSH1 0x40 MLOAD RETURNDATASIZE PUSH1 0x1F NOT PUSH1 0x1F DUP3 ADD AND DUP3 ADD DUP1 PUSH1 0x40 MSTORE POP DUP2 ADD SWAP1 PUSH2 0x173A SWAP2 SWAP1 PUSH2 0x2AA5 JUMP JUMPDEST POP PUSH1 0x1 PUSH1 0x1 PUSH1 0x70 SHL SUB AND SWAP2 POP PUSH1 0x1 PUSH1 0x1 PUSH1 0x70 SHL SUB AND SWAP2 POP DUP9 PUSH1 0x0 EQ DUP1 ISZERO PUSH2 0x175F JUMPI POP DUP8 ISZERO JUMPDEST DUP1 ISZERO PUSH2 0x1769 JUMPI POP DUP2 ISZERO JUMPDEST DUP1 ISZERO PUSH2 0x1773 JUMPI POP DUP1 ISZERO JUMPDEST ISZERO PUSH2 0x17E2 JUMPI PUSH1 0x0 DUP5 DUP2 MSTORE PUSH1 0x2 PUSH1 0x20 DUP2 SWAP1 MSTORE PUSH1 0x40 SWAP1 SWAP2 KECCAK256 PUSH1 0xC DUP2 ADD DUP1 SLOAD PUSH1 0xFF PUSH1 0xA0 SHL NOT AND PUSH1 0x1 PUSH1 0xA0 SHL OR SWAP1 SSTORE ADD SLOAD PUSH2 0x17B2 SWAP1 DUP16 SWAP1 DUP16 SWAP1 DUP16 SWAP1 DUP16 SWAP1 DUP1 PUSH2 0x2204 JUMP JUMPDEST PUSH1 0x40 MLOAD DUP5 SWAP1 PUSH32 0x524F8E6C94465B4AB34A95B899F86628F3F6445AE120C4DACC9B3A67011DC259 SWAP1 PUSH1 0x0 SWAP1 LOG2 PUSH2 0x188A JUMP JUMPDEST PUSH1 0x0 PUSH2 0x17F1 DUP14 DUP14 DUP6 DUP6 DUP13 PUSH2 0x20BD JUMP JUMPDEST PUSH1 0x0 SLOAD PUSH1 0x40 MLOAD PUSH4 0x6649D67 PUSH1 0xE0 SHL DUP2 MSTORE SWAP2 SWAP3 POP PUSH1 0x1 PUSH1 0x1 PUSH1 0xA0 SHL SUB AND SWAP1 PUSH4 0x6649D67 SWAP1 PUSH2 0x1824 SWAP1 DUP5 SWAP1 DUP9 SWAP1 PUSH1 0x4 ADD PUSH2 0x3437 JUMP JUMPDEST PUSH1 0x20 PUSH1 0x40 MLOAD DUP1 DUP4 SUB DUP2 PUSH1 0x0 DUP8 DUP1 EXTCODESIZE ISZERO DUP1 ISZERO PUSH2 0x183E JUMPI PUSH1 0x0 DUP1 REVERT JUMPDEST POP GAS CALL ISZERO DUP1 ISZERO PUSH2 0x1852 JUMPI RETURNDATASIZE PUSH1 0x0 DUP1 RETURNDATACOPY RETURNDATASIZE PUSH1 0x0 REVERT JUMPDEST POP POP POP POP PUSH1 0x40 MLOAD RETURNDATASIZE PUSH1 0x1F NOT PUSH1 0x1F DUP3 ADD AND DUP3 ADD DUP1 PUSH1 0x40 MSTORE POP DUP2 ADD SWAP1 PUSH2 0x1876 SWAP2 SWAP1 PUSH2 0x2B11 JUMP JUMPDEST PUSH1 0x0 DUP7 DUP2 MSTORE PUSH1 0x2 PUSH1 0x20 MSTORE PUSH1 0x40 SWAP1 KECCAK256 PUSH1 0xB ADD SSTORE POP JUMPDEST POP POP POP SWAP11 SWAP10 POP POP POP POP POP POP POP POP POP POP JUMP JUMPDEST PUSH32 0x0 DUP2 JUMP JUMPDEST PUSH1 0x0 DUP2 DUP2 MSTORE PUSH1 0x2 PUSH1 0x20 MSTORE PUSH1 0x40 SWAP1 KECCAK256 PUSH1 0x9 DUP2 ADD SLOAD TIMESTAMP GT ISZERO PUSH2 0x18F1 JUMPI PUSH1 0x40 MLOAD PUSH3 0x461BCD PUSH1 0xE5 SHL DUP2 MSTORE PUSH1 0x4 ADD PUSH2 0x3B9 SWAP1 PUSH2 0x3146 JUMP JUMPDEST PUSH1 0x0 SLOAD PUSH1 0xB DUP3 ADD SLOAD PUSH1 0x40 MLOAD PUSH4 0x25FA7003 PUSH1 0xE0 SHL DUP2 MSTORE PUSH1 0x1 PUSH1 0x1 PUSH1 0xA0 SHL SUB SWAP1 SWAP3 AND SWAP2 PUSH4 0x25FA7003 SWAP2 PUSH2 0x1924 SWAP2 PUSH1 0x4 ADD PUSH2 0x342E JUMP JUMPDEST PUSH1 0x20 PUSH1 0x40 MLOAD DUP1 DUP4 SUB DUP2 DUP7 DUP1 EXTCODESIZE ISZERO DUP1 ISZERO PUSH2 0x193C JUMPI PUSH1 0x0 DUP1 REVERT JUMPDEST POP GAS STATICCALL ISZERO DUP1 ISZERO PUSH2 0x1950 JUMPI RETURNDATASIZE PUSH1 0x0 DUP1 RETURNDATACOPY RETURNDATASIZE PUSH1 0x0 REVERT JUMPDEST POP POP POP POP PUSH1 0x40 MLOAD RETURNDATASIZE PUSH1 0x1F NOT PUSH1 0x1F DUP3 ADD AND DUP3 ADD DUP1 PUSH1 0x40 MSTORE POP DUP2 ADD SWAP1 PUSH2 0x1974 SWAP2 SWAP1 PUSH2 0x2A85 JUMP JUMPDEST ISZERO PUSH2 0x1991 JUMPI PUSH1 0x40 MLOAD PUSH3 0x461BCD PUSH1 0xE5 SHL DUP2 MSTORE PUSH1 0x4 ADD PUSH2 0x3B9 SWAP1 PUSH2 0x320D JUMP JUMPDEST PUSH1 0x0 PUSH2 0x19F3 PUSH32 0x0 PUSH2 0x19E7 PUSH32 0x0 GASPRICE PUSH4 0xFFFFFFFF PUSH2 0x21A4 AND JUMP JUMPDEST SWAP1 PUSH4 0xFFFFFFFF PUSH2 0x26D9 AND JUMP JUMPDEST SWAP1 POP PUSH1 0x0 DUP1 DUP4 PUSH1 0x8 ADD PUSH1 0x0 SWAP1 SLOAD SWAP1 PUSH2 0x100 EXP SWAP1 DIV PUSH1 0x1 PUSH1 0x1 PUSH1 0xA0 SHL SUB AND PUSH1 0x1 PUSH1 0x1 PUSH1 0xA0 SHL SUB AND PUSH4 0x902F1AC PUSH1 0x40 MLOAD DUP2 PUSH4 0xFFFFFFFF AND PUSH1 0xE0 SHL DUP2 MSTORE PUSH1 0x4 ADD PUSH1 0x60 PUSH1 0x40 MLOAD DUP1 DUP4 SUB DUP2 DUP7 DUP1 EXTCODESIZE ISZERO DUP1 ISZERO PUSH2 0x1A48 JUMPI PUSH1 0x0 DUP1 REVERT JUMPDEST POP GAS STATICCALL ISZERO DUP1 ISZERO PUSH2 0x1A5C JUMPI RETURNDATASIZE PUSH1 0x0 DUP1 RETURNDATACOPY RETURNDATASIZE PUSH1 0x0 REVERT JUMPDEST POP POP POP POP PUSH1 0x40 MLOAD RETURNDATASIZE PUSH1 0x1F NOT PUSH1 0x1F DUP3 ADD AND DUP3 ADD DUP1 PUSH1 0x40 MSTORE POP DUP2 ADD SWAP1 PUSH2 0x1A80 SWAP2 SWAP1 PUSH2 0x2AA5 JUMP JUMPDEST POP PUSH1 0x1 PUSH1 0x1 PUSH1 0x70 SHL SUB AND SWAP2 POP PUSH1 0x1 PUSH1 0x1 PUSH1 0x70 SHL SUB AND SWAP2 POP DUP4 PUSH1 0x6 ADD SLOAD DUP3 LT ISZERO DUP1 ISZERO PUSH2 0x1AAF JUMPI POP DUP4 PUSH1 0x7 ADD SLOAD DUP2 LT ISZERO JUMPDEST PUSH2 0x1ACB JUMPI PUSH1 0x40 MLOAD PUSH3 0x461BCD PUSH1 0xE5 SHL DUP2 MSTORE PUSH1 0x4 ADD PUSH2 0x3B9 SWAP1 PUSH2 0x32D6 JUMP JUMPDEST PUSH1 0x0 SLOAD PUSH1 0xB DUP6 ADD SLOAD PUSH1 0x40 MLOAD PUSH4 0x4155C485 PUSH1 0xE1 SHL DUP2 MSTORE PUSH1 0x1 PUSH1 0x1 PUSH1 0xA0 SHL SUB SWAP1 SWAP3 AND SWAP2 PUSH4 0x82AB890A SWAP2 PUSH2 0x1AFE SWAP2 PUSH1 0x4 ADD PUSH2 0x342E JUMP JUMPDEST PUSH1 0x0 PUSH1 0x40 MLOAD DUP1 DUP4 SUB DUP2 PUSH1 0x0 DUP8 DUP1 EXTCODESIZE ISZERO DUP1 ISZERO PUSH2 0x1B18 JUMPI PUSH1 0x0 DUP1 REVERT JUMPDEST POP GAS CALL ISZERO DUP1 ISZERO PUSH2 0x1B2C JUMPI RETURNDATASIZE PUSH1 0x0 DUP1 RETURNDATACOPY RETURNDATASIZE PUSH1 0x0 REVERT JUMPDEST POP POP POP POP DUP3 SELFBALANCE LT PUSH2 0x1B41 JUMPI PUSH2 0x1B41 CALLER DUP5 PUSH2 0x1D80 JUMP JUMPDEST POP POP POP POP POP JUMP JUMPDEST CALLER PUSH1 0x1 PUSH1 0x1 PUSH1 0xA0 SHL SUB PUSH32 0x0 AND EQ PUSH2 0x1B90 JUMPI PUSH1 0x40 MLOAD PUSH3 0x461BCD PUSH1 0xE5 SHL DUP2 MSTORE PUSH1 0x4 ADD PUSH2 0x3B9 SWAP1 PUSH2 0x2F76 JUMP JUMPDEST PUSH2 0x1BBA PUSH32 0x0 DUP3 PUSH2 0x1D80 JUMP JUMPDEST POP JUMP JUMPDEST PUSH32 0x0 DUP2 JUMP JUMPDEST PUSH32 0x0 DUP2 JUMP JUMPDEST CALLER PUSH1 0x1 PUSH1 0x1 PUSH1 0xA0 SHL SUB PUSH32 0x0 AND EQ PUSH2 0x1C4D JUMPI PUSH1 0x40 MLOAD PUSH3 0x461BCD PUSH1 0xE5 SHL DUP2 MSTORE PUSH1 0x4 ADD PUSH2 0x3B9 SWAP1 PUSH2 0x2F76 JUMP JUMPDEST PUSH2 0x1C78 DUP3 PUSH32 0x0 DUP4 PUSH2 0x1E12 JUMP JUMPDEST POP POP JUMP JUMPDEST PUSH32 0x0 DUP2 JUMP JUMPDEST PUSH2 0x1CA8 PUSH2 0x286D JUMP JUMPDEST POP PUSH1 0x0 SWAP1 DUP2 MSTORE PUSH1 0x2 PUSH1 0x20 DUP2 DUP2 MSTORE PUSH1 0x40 SWAP3 DUP4 SWAP1 KECCAK256 DUP4 MLOAD PUSH2 0x1E0 DUP2 ADD DUP6 MSTORE DUP2 SLOAD PUSH1 0xFF DUP1 DUP3 AND DUP4 MSTORE PUSH1 0x1 PUSH1 0x1 PUSH1 0xA0 SHL SUB PUSH2 0x100 SWAP3 DUP4 SWAP1 DIV DUP2 AND SWAP6 DUP5 ADD SWAP6 SWAP1 SWAP6 MSTORE PUSH1 0x1 DUP5 ADD SLOAD DUP6 AND SWAP7 DUP4 ADD SWAP7 SWAP1 SWAP7 MSTORE SWAP4 DUP3 ADD SLOAD PUSH1 0x60 DUP3 ADD MSTORE PUSH1 0x3 DUP3 ADD SLOAD PUSH1 0x80 DUP3 ADD MSTORE PUSH1 0x4 DUP3 ADD SLOAD PUSH1 0xA0 DUP3 ADD MSTORE PUSH1 0x5 DUP3 ADD SLOAD PUSH1 0xC0 DUP3 ADD MSTORE PUSH1 0x6 DUP3 ADD SLOAD PUSH1 0xE0 DUP3 ADD MSTORE PUSH1 0x7 DUP3 ADD SLOAD SWAP4 DUP2 ADD SWAP4 SWAP1 SWAP4 MSTORE PUSH1 0x8 DUP2 ADD SLOAD DUP3 AND PUSH2 0x120 DUP5 ADD MSTORE PUSH1 0x9 DUP2 ADD SLOAD PUSH2 0x140 DUP5 ADD MSTORE PUSH1 0xA DUP2 ADD SLOAD PUSH2 0x160 DUP5 ADD MSTORE PUSH1 0xB DUP2 ADD SLOAD PUSH2 0x180 DUP5 ADD MSTORE PUSH1 0xC ADD SLOAD SWAP1 DUP2 AND PUSH2 0x1A0 DUP4 ADD MSTORE PUSH1 0x1 PUSH1 0xA0 SHL SWAP1 DIV SWAP1 SWAP2 AND ISZERO ISZERO PUSH2 0x1C0 DUP3 ADD MSTORE SWAP1 JUMP JUMPDEST PUSH1 0x40 DUP1 MLOAD PUSH1 0x0 DUP1 DUP3 MSTORE PUSH1 0x20 DUP3 ADD SWAP1 SWAP3 MSTORE PUSH1 0x1 PUSH1 0x1 PUSH1 0xA0 SHL SUB DUP5 AND SWAP1 DUP4 SWAP1 PUSH1 0x40 MLOAD PUSH2 0x1DAA SWAP2 SWAP1 PUSH2 0x2BBA JUMP JUMPDEST PUSH1 0x0 PUSH1 0x40 MLOAD DUP1 DUP4 SUB DUP2 DUP6 DUP8 GAS CALL SWAP3 POP POP POP RETURNDATASIZE DUP1 PUSH1 0x0 DUP2 EQ PUSH2 0x1DE7 JUMPI PUSH1 0x40 MLOAD SWAP2 POP PUSH1 0x1F NOT PUSH1 0x3F RETURNDATASIZE ADD AND DUP3 ADD PUSH1 0x40 MSTORE RETURNDATASIZE DUP3 MSTORE RETURNDATASIZE PUSH1 0x0 PUSH1 0x20 DUP5 ADD RETURNDATACOPY PUSH2 0x1DEC JUMP JUMPDEST PUSH1 0x60 SWAP2 POP JUMPDEST POP POP SWAP1 POP DUP1 PUSH2 0x1E0D JUMPI PUSH1 0x40 MLOAD PUSH3 0x461BCD PUSH1 0xE5 SHL DUP2 MSTORE PUSH1 0x4 ADD PUSH2 0x3B9 SWAP1 PUSH2 0x324F JUMP JUMPDEST POP POP POP JUMP JUMPDEST PUSH1 0x0 PUSH1 0x60 DUP5 PUSH1 0x1 PUSH1 0x1 PUSH1 0xA0 SHL SUB AND PUSH4 0xA9059CBB DUP6 DUP6 PUSH1 0x40 MLOAD PUSH1 0x24 ADD PUSH2 0x1E38 SWAP3 SWAP2 SWAP1 PUSH2 0x2D00 JUMP JUMPDEST PUSH1 0x40 MLOAD PUSH1 0x20 DUP2 DUP4 SUB SUB DUP2 MSTORE SWAP1 PUSH1 0x40 MSTORE SWAP1 PUSH1 0xE0 SHL PUSH1 0x20 DUP3 ADD DUP1 MLOAD PUSH1 0x1 PUSH1 0x1 PUSH1 0xE0 SHL SUB DUP4 DUP2 DUP4 AND OR DUP4 MSTORE POP POP POP POP PUSH1 0x40 MLOAD PUSH2 0x1E71 SWAP2 SWAP1 PUSH2 0x2BBA JUMP JUMPDEST PUSH1 0x0 PUSH1 0x40 MLOAD DUP1 DUP4 SUB DUP2 PUSH1 0x0 DUP7 GAS CALL SWAP2 POP POP RETURNDATASIZE DUP1 PUSH1 0x0 DUP2 EQ PUSH2 0x1EAE JUMPI PUSH1 0x40 MLOAD SWAP2 POP PUSH1 0x1F NOT PUSH1 0x3F RETURNDATASIZE ADD AND DUP3 ADD PUSH1 0x40 MSTORE RETURNDATASIZE DUP3 MSTORE RETURNDATASIZE PUSH1 0x0 PUSH1 0x20 DUP5 ADD RETURNDATACOPY PUSH2 0x1EB3 JUMP JUMPDEST PUSH1 0x60 SWAP2 POP JUMPDEST POP SWAP2 POP SWAP2 POP DUP2 DUP1 ISZERO PUSH2 0x1EDD JUMPI POP DUP1 MLOAD ISZERO DUP1 PUSH2 0x1EDD JUMPI POP DUP1 DUP1 PUSH1 0x20 ADD SWAP1 MLOAD DUP2 ADD SWAP1 PUSH2 0x1EDD SWAP2 SWAP1 PUSH2 0x2A85 JUMP JUMPDEST PUSH2 0x1B41 JUMPI PUSH1 0x40 MLOAD PUSH3 0x461BCD PUSH1 0xE5 SHL DUP2 MSTORE PUSH1 0x4 ADD PUSH2 0x3B9 SWAP1 PUSH2 0x2D48 JUMP JUMPDEST PUSH1 0x0 PUSH32 0x0 PUSH1 0x1 PUSH1 0x1 PUSH1 0xA0 SHL SUB AND DUP3 PUSH1 0x1 PUSH1 0x1 PUSH1 0xA0 SHL SUB AND EQ DUP1 PUSH2 0x1F6C JUMPI POP PUSH32 0x0 PUSH1 0x1 PUSH1 0x1 PUSH1 0xA0 SHL SUB AND DUP3 PUSH1 0x1 PUSH1 0x1 PUSH1 0xA0 SHL SUB AND EQ JUMPDEST PUSH2 0x1F88 JUMPI PUSH1 0x40 MLOAD PUSH3 0x461BCD PUSH1 0xE5 SHL DUP2 MSTORE PUSH1 0x4 ADD PUSH2 0x3B9 SWAP1 PUSH2 0x2E1B JUMP JUMPDEST PUSH1 0x1 PUSH1 0x1 PUSH1 0xA0 SHL SUB DUP5 AND PUSH2 0x1FBA JUMPI PUSH32 0x0 SWAP4 POP JUMPDEST PUSH1 0x40 MLOAD PUSH4 0xE6A43905 PUSH1 0xE0 SHL DUP2 MSTORE PUSH1 0x1 PUSH1 0x1 PUSH1 0xA0 SHL SUB DUP4 AND SWAP1 PUSH4 0xE6A43905 SWAP1 PUSH2 0x1FE8 SWAP1 DUP8 SWAP1 DUP8 SWAP1 PUSH1 0x4 ADD PUSH2 0x2C5D JUMP JUMPDEST PUSH1 0x20 PUSH1 0x40 MLOAD DUP1 DUP4 SUB DUP2 DUP7 DUP1 EXTCODESIZE ISZERO DUP1 ISZERO PUSH2 0x2000 JUMPI PUSH1 0x0 DUP1 REVERT JUMPDEST POP GAS STATICCALL ISZERO DUP1 ISZERO PUSH2 0x2014 JUMPI RETURNDATASIZE PUSH1 0x0 DUP1 RETURNDATACOPY RETURNDATASIZE PUSH1 0x0 REVERT JUMPDEST POP POP POP POP PUSH1 0x40 MLOAD RETURNDATASIZE PUSH1 0x1F NOT PUSH1 0x1F DUP3 ADD AND DUP3 ADD DUP1 PUSH1 0x40 MSTORE POP DUP2 ADD SWAP1 PUSH2 0x2038 SWAP2 SWAP1 PUSH2 0x290C JUMP JUMPDEST SWAP5 SWAP4 POP POP POP POP JUMP JUMPDEST PUSH1 0x1 DUP1 SLOAD DUP1 DUP3 ADD SWAP1 SWAP2 SSTORE SWAP1 JUMP JUMPDEST PUSH1 0x0 DUP1 PUSH1 0x0 PUSH2 0x205C DUP6 DUP6 PUSH2 0x26FC JUMP JUMPDEST SWAP2 POP SWAP2 POP DUP6 DUP3 DUP3 PUSH1 0x40 MLOAD PUSH1 0x20 ADD PUSH2 0x2074 SWAP3 SWAP2 SWAP1 PUSH2 0x2B93 JUMP JUMPDEST PUSH1 0x40 MLOAD PUSH1 0x20 DUP2 DUP4 SUB SUB DUP2 MSTORE SWAP1 PUSH1 0x40 MSTORE DUP1 MLOAD SWAP1 PUSH1 0x20 ADD KECCAK256 PUSH1 0x40 MLOAD PUSH1 0x20 ADD PUSH2 0x209B SWAP3 SWAP2 SWAP1 PUSH2 0x2BF3 JUMP JUMPDEST PUSH1 0x40 DUP1 MLOAD PUSH1 0x1F NOT DUP2 DUP5 SUB ADD DUP2 MSTORE SWAP2 SWAP1 MSTORE DUP1 MLOAD PUSH1 0x20 SWAP1 SWAP2 ADD KECCAK256 SWAP7 SWAP6 POP POP POP POP POP POP JUMP JUMPDEST PUSH1 0x0 DUP1 DUP5 GT DUP1 ISZERO PUSH2 0x20CE JUMPI POP PUSH1 0x0 DUP4 GT JUMPDEST ISZERO PUSH2 0x2198 JUMPI PUSH1 0x0 PUSH2 0x20E5 DUP6 DUP6 PUSH4 0xFFFFFFFF PUSH2 0x26D9 AND JUMP JUMPDEST PUSH2 0x2125 PUSH32 0x0 PUSH2 0x2119 DUP11 DUP11 PUSH4 0xFFFFFFFF PUSH2 0x26D9 AND JUMP JUMPDEST SWAP1 PUSH4 0xFFFFFFFF PUSH2 0x21A4 AND JUMP JUMPDEST DUP2 PUSH2 0x212C JUMPI INVALID JUMPDEST DIV SWAP1 POP PUSH2 0x3E8 DUP2 LT ISZERO PUSH2 0x2142 JUMPI PUSH1 0x1E SWAP2 POP PUSH2 0x2180 JUMP JUMPDEST PUSH2 0x9C4 DUP2 LT ISZERO PUSH2 0x2155 JUMPI PUSH1 0x3C SWAP2 POP PUSH2 0x2180 JUMP JUMPDEST PUSH2 0x1388 DUP2 LT ISZERO PUSH2 0x2168 JUMPI PUSH1 0x5A SWAP2 POP PUSH2 0x2180 JUMP JUMPDEST PUSH2 0x2710 DUP2 LT ISZERO PUSH2 0x217B JUMPI PUSH1 0x78 SWAP2 POP PUSH2 0x2180 JUMP JUMPDEST PUSH1 0x96 SWAP2 POP JUMPDEST DUP3 DUP3 GT ISZERO PUSH2 0x218E JUMPI DUP3 PUSH2 0x2190 JUMP JUMPDEST DUP2 JUMPDEST SWAP2 POP POP PUSH2 0x219B JUMP JUMPDEST POP DUP1 JUMPDEST SWAP6 SWAP5 POP POP POP POP POP JUMP JUMPDEST PUSH1 0x0 DUP2 ISZERO DUP1 PUSH2 0x21BF JUMPI POP POP DUP1 DUP3 MUL DUP3 DUP3 DUP3 DUP2 PUSH2 0x21BC JUMPI INVALID JUMPDEST DIV EQ JUMPDEST PUSH2 0x21DB JUMPI PUSH1 0x40 MLOAD PUSH3 0x461BCD PUSH1 0xE5 SHL DUP2 MSTORE PUSH1 0x4 ADD PUSH2 0x3B9 SWAP1 PUSH2 0x2DB6 JUMP JUMPDEST SWAP3 SWAP2 POP POP JUMP JUMPDEST DUP1 DUP3 SUB DUP3 DUP2 GT ISZERO PUSH2 0x21DB JUMPI PUSH1 0x40 MLOAD PUSH3 0x461BCD PUSH1 0xE5 SHL DUP2 MSTORE PUSH1 0x4 ADD PUSH2 0x3B9 SWAP1 PUSH2 0x2D19 JUMP JUMPDEST PUSH1 0x0 DUP1 DUP1 PUSH1 0x1 PUSH1 0x1 PUSH1 0xA0 SHL SUB DUP10 AND PUSH2 0x22AE JUMPI PUSH32 0x0 PUSH1 0x1 PUSH1 0x1 PUSH1 0xA0 SHL SUB AND PUSH4 0xD0E30DB0 DUP9 PUSH1 0x40 MLOAD DUP3 PUSH4 0xFFFFFFFF AND PUSH1 0xE0 SHL DUP2 MSTORE PUSH1 0x4 ADD PUSH1 0x0 PUSH1 0x40 MLOAD DUP1 DUP4 SUB DUP2 DUP6 DUP9 DUP1 EXTCODESIZE ISZERO DUP1 ISZERO PUSH2 0x2271 JUMPI PUSH1 0x0 DUP1 REVERT JUMPDEST POP GAS CALL ISZERO DUP1 ISZERO PUSH2 0x2285 JUMPI RETURNDATASIZE PUSH1 0x0 DUP1 RETURNDATACOPY RETURNDATASIZE PUSH1 0x0 REVERT JUMPDEST POP POP POP POP POP PUSH32 0x0 SWAP9 POP JUMPDEST PUSH2 0x22D9 DUP10 PUSH32 0x0 DUP10 PUSH2 0x2786 JUMP JUMPDEST PUSH2 0x2304 DUP9 PUSH32 0x0 DUP9 PUSH2 0x2786 JUMP JUMPDEST PUSH1 0x40 MLOAD PUSH3 0xE8E337 PUSH1 0xE8 SHL DUP2 MSTORE PUSH1 0x1 PUSH1 0x1 PUSH1 0xA0 SHL SUB PUSH32 0x0 AND SWAP1 PUSH4 0xE8E33700 SWAP1 PUSH2 0x235D SWAP1 DUP13 SWAP1 DUP13 SWAP1 DUP13 SWAP1 DUP13 SWAP1 DUP13 SWAP1 DUP13 SWAP1 ADDRESS SWAP1 TIMESTAMP SWAP1 PUSH1 0x4 ADD PUSH2 0x2CB7 JUMP JUMPDEST PUSH1 0x60 PUSH1 0x40 MLOAD DUP1 DUP4 SUB DUP2 PUSH1 0x0 DUP8 DUP1 EXTCODESIZE ISZERO DUP1 ISZERO PUSH2 0x2377 JUMPI PUSH1 0x0 DUP1 REVERT JUMPDEST POP GAS CALL ISZERO DUP1 ISZERO PUSH2 0x238B JUMPI RETURNDATASIZE PUSH1 0x0 DUP1 RETURNDATACOPY RETURNDATASIZE PUSH1 0x0 REVERT JUMPDEST POP POP POP POP PUSH1 0x40 MLOAD RETURNDATASIZE PUSH1 0x1F NOT PUSH1 0x1F DUP3 ADD AND DUP3 ADD DUP1 PUSH1 0x40 MSTORE POP DUP2 ADD SWAP1 PUSH2 0x23AF SWAP2 SWAP1 PUSH2 0x2B4C JUMP JUMPDEST SWAP2 SWAP5 POP SWAP3 POP SWAP1 POP PUSH2 0x23E2 DUP10 PUSH32 0x0 PUSH1 0x0 PUSH2 0x2786 JUMP JUMPDEST PUSH2 0x240E DUP9 PUSH32 0x0 PUSH1 0x0 PUSH2 0x2786 JUMP JUMPDEST POP POP POP POP POP POP POP POP POP JUMP JUMPDEST PUSH1 0x1 PUSH1 0x1 PUSH1 0xA0 SHL SUB DUP7 AND ISZERO PUSH2 0x242E JUMPI DUP6 PUSH2 0x2450 JUMP JUMPDEST PUSH32 0x0 JUMPDEST SWAP6 POP PUSH2 0x247D DUP5 PUSH32 0x0 DUP6 PUSH2 0x2786 JUMP JUMPDEST PUSH1 0x0 DUP1 PUSH32 0x0 PUSH1 0x1 PUSH1 0x1 PUSH1 0xA0 SHL SUB AND PUSH4 0xBAA2ABDE DUP10 DUP10 DUP9 DUP9 DUP9 ADDRESS TIMESTAMP PUSH1 0x40 MLOAD DUP9 PUSH4 0xFFFFFFFF AND PUSH1 0xE0 SHL DUP2 MSTORE PUSH1 0x4 ADD PUSH2 0x24D8 SWAP8 SWAP7 SWAP6 SWAP5 SWAP4 SWAP3 SWAP2 SWAP1 PUSH2 0x2C77 JUMP JUMPDEST PUSH1 0x40 DUP1 MLOAD DUP1 DUP4 SUB DUP2 PUSH1 0x0 DUP8 DUP1 EXTCODESIZE ISZERO DUP1 ISZERO PUSH2 0x24F1 JUMPI PUSH1 0x0 DUP1 REVERT JUMPDEST POP GAS CALL ISZERO DUP1 ISZERO PUSH2 0x2505 JUMPI RETURNDATASIZE PUSH1 0x0 DUP1 RETURNDATACOPY RETURNDATASIZE PUSH1 0x0 REVERT JUMPDEST POP POP POP POP PUSH1 0x40 MLOAD RETURNDATASIZE PUSH1 0x1F NOT PUSH1 0x1F DUP3 ADD AND DUP3 ADD DUP1 PUSH1 0x40 MSTORE POP DUP2 ADD SWAP1 PUSH2 0x2529 SWAP2 SWAP1 PUSH2 0x2B29 JUMP JUMPDEST SWAP2 POP SWAP2 POP PUSH2 0x2559 DUP7 PUSH32 0x0 PUSH1 0x0 PUSH2 0x2786 JUMP JUMPDEST PUSH32 0x0 PUSH1 0x1 PUSH1 0x1 PUSH1 0xA0 SHL SUB AND DUP9 PUSH1 0x1 PUSH1 0x1 PUSH1 0xA0 SHL SUB AND EQ ISZERO PUSH2 0x2616 JUMPI PUSH1 0x40 MLOAD PUSH4 0x2E1A7D4D PUSH1 0xE0 SHL DUP2 MSTORE PUSH1 0x1 PUSH1 0x1 PUSH1 0xA0 SHL SUB PUSH32 0x0 AND SWAP1 PUSH4 0x2E1A7D4D SWAP1 PUSH2 0x25DF SWAP1 DUP6 SWAP1 PUSH1 0x4 ADD PUSH2 0x342E JUMP JUMPDEST PUSH1 0x0 PUSH1 0x40 MLOAD DUP1 DUP4 SUB DUP2 PUSH1 0x0 DUP8 DUP1 EXTCODESIZE ISZERO DUP1 ISZERO PUSH2 0x25F9 JUMPI PUSH1 0x0 DUP1 REVERT JUMPDEST POP GAS CALL ISZERO DUP1 ISZERO PUSH2 0x260D JUMPI RETURNDATASIZE PUSH1 0x0 DUP1 RETURNDATACOPY RETURNDATASIZE PUSH1 0x0 REVERT JUMPDEST POP POP POP POP PUSH2 0x26CF JUMP JUMPDEST PUSH32 0x0 PUSH1 0x1 PUSH1 0x1 PUSH1 0xA0 SHL SUB AND DUP8 PUSH1 0x1 PUSH1 0x1 PUSH1 0xA0 SHL SUB AND EQ ISZERO PUSH2 0x26CF JUMPI PUSH1 0x40 MLOAD PUSH4 0x2E1A7D4D PUSH1 0xE0 SHL DUP2 MSTORE PUSH1 0x1 PUSH1 0x1 PUSH1 0xA0 SHL SUB PUSH32 0x0 AND SWAP1 PUSH4 0x2E1A7D4D SWAP1 PUSH2 0x269C SWAP1 DUP5 SWAP1 PUSH1 0x4 ADD PUSH2 0x342E JUMP JUMPDEST PUSH1 0x0 PUSH1 0x40 MLOAD DUP1 DUP4 SUB DUP2 PUSH1 0x0 DUP8 DUP1 EXTCODESIZE ISZERO DUP1 ISZERO PUSH2 0x26B6 JUMPI PUSH1 0x0 DUP1 REVERT JUMPDEST POP GAS CALL ISZERO DUP1 ISZERO PUSH2 0x26CA JUMPI RETURNDATASIZE PUSH1 0x0 DUP1 RETURNDATACOPY RETURNDATASIZE PUSH1 0x0 REVERT JUMPDEST POP POP POP POP JUMPDEST POP POP POP POP POP POP POP POP JUMP JUMPDEST DUP1 DUP3 ADD DUP3 DUP2 LT ISZERO PUSH2 0x21DB JUMPI PUSH1 0x40 MLOAD PUSH3 0x461BCD PUSH1 0xE5 SHL DUP2 MSTORE PUSH1 0x4 ADD PUSH2 0x3B9 SWAP1 PUSH2 0x2E50 JUMP JUMPDEST PUSH1 0x0 DUP1 DUP3 PUSH1 0x1 PUSH1 0x1 PUSH1 0xA0 SHL SUB AND DUP5 PUSH1 0x1 PUSH1 0x1 PUSH1 0xA0 SHL SUB AND EQ ISZERO PUSH2 0x2731 JUMPI PUSH1 0x40 MLOAD PUSH3 0x461BCD PUSH1 0xE5 SHL DUP2 MSTORE PUSH1 0x4 ADD PUSH2 0x3B9 SWAP1 PUSH2 0x3292 JUMP JUMPDEST DUP3 PUSH1 0x1 PUSH1 0x1 PUSH1 0xA0 SHL SUB AND DUP5 PUSH1 0x1 PUSH1 0x1 PUSH1 0xA0 SHL SUB AND LT PUSH2 0x2751 JUMPI DUP3 DUP5 PUSH2 0x2754 JUMP JUMPDEST DUP4 DUP4 JUMPDEST SWAP1 SWAP3 POP SWAP1 POP PUSH1 0x1 PUSH1 0x1 PUSH1 0xA0 SHL SUB DUP3 AND PUSH2 0x277F JUMPI PUSH1 0x40 MLOAD PUSH3 0x461BCD PUSH1 0xE5 SHL DUP2 MSTORE PUSH1 0x4 ADD PUSH2 0x3B9 SWAP1 PUSH2 0x2EB5 JUMP JUMPDEST SWAP3 POP SWAP3 SWAP1 POP JUMP JUMPDEST PUSH1 0x0 PUSH1 0x60 DUP5 PUSH1 0x1 PUSH1 0x1 PUSH1 0xA0 SHL SUB AND PUSH4 0x95EA7B3 DUP6 DUP6 PUSH1 0x40 MLOAD PUSH1 0x24 ADD PUSH2 0x27AC SWAP3 SWAP2 SWAP1 PUSH2 0x2D00 JUMP JUMPDEST PUSH1 0x40 MLOAD PUSH1 0x20 DUP2 DUP4 SUB SUB DUP2 MSTORE SWAP1 PUSH1 0x40 MSTORE SWAP1 PUSH1 0xE0 SHL PUSH1 0x20 DUP3 ADD DUP1 MLOAD PUSH1 0x1 PUSH1 0x1 PUSH1 0xE0 SHL SUB DUP4 DUP2 DUP4 AND OR DUP4 MSTORE POP POP POP POP PUSH1 0x40 MLOAD PUSH2 0x27E5 SWAP2 SWAP1 PUSH2 0x2BBA JUMP JUMPDEST PUSH1 0x0 PUSH1 0x40 MLOAD DUP1 DUP4 SUB DUP2 PUSH1 0x0 DUP7 GAS CALL SWAP2 POP POP RETURNDATASIZE DUP1 PUSH1 0x0 DUP2 EQ PUSH2 0x2822 JUMPI PUSH1 0x40 MLOAD SWAP2 POP PUSH1 0x1F NOT PUSH1 0x3F RETURNDATASIZE ADD AND DUP3 ADD PUSH1 0x40 MSTORE RETURNDATASIZE DUP3 MSTORE RETURNDATASIZE PUSH1 0x0 PUSH1 0x20 DUP5 ADD RETURNDATACOPY PUSH2 0x2827 JUMP JUMPDEST PUSH1 0x60 SWAP2 POP JUMPDEST POP SWAP2 POP SWAP2 POP DUP2 DUP1 ISZERO PUSH2 0x2851 JUMPI POP DUP1 MLOAD ISZERO DUP1 PUSH2 0x2851 JUMPI POP DUP1 DUP1 PUSH1 0x20 ADD SWAP1 MLOAD DUP2 ADD SWAP1 PUSH2 0x2851 SWAP2 SWAP1 PUSH2 0x2A85 JUMP JUMPDEST PUSH2 0x1B41 JUMPI PUSH1 0x40 MLOAD PUSH3 0x461BCD PUSH1 0xE5 SHL DUP2 MSTORE PUSH1 0x4 ADD PUSH2 0x3B9 SWAP1 PUSH2 0x2E7E JUMP JUMPDEST PUSH1 0x40 MLOAD DUP1 PUSH2 0x1E0 ADD PUSH1 0x40 MSTORE DUP1 PUSH1 0x0 PUSH1 0xFF AND DUP2 MSTORE PUSH1 0x20 ADD PUSH1 0x0 PUSH1 0x1 PUSH1 0x1 PUSH1 0xA0 SHL SUB AND DUP2 MSTORE PUSH1 0x20 ADD PUSH1 0x0 PUSH1 0x1 PUSH1 0x1 PUSH1 0xA0 SHL SUB AND DUP2 MSTORE PUSH1 0x20 ADD PUSH1 0x0 DUP2 MSTORE PUSH1 0x20 ADD PUSH1 0x0 DUP2 MSTORE PUSH1 0x20 ADD PUSH1 0x0 DUP2 MSTORE PUSH1 0x20 ADD PUSH1 0x0 DUP2 MSTORE PUSH1 0x20 ADD PUSH1 0x0 DUP2 MSTORE PUSH1 0x20 ADD PUSH1 0x0 DUP2 MSTORE PUSH1 0x20 ADD PUSH1 0x0 PUSH1 0x1 PUSH1 0x1 PUSH1 0xA0 SHL SUB AND DUP2 MSTORE PUSH1 0x20 ADD PUSH1 0x0 DUP2 MSTORE PUSH1 0x20 ADD PUSH1 0x0 DUP2 MSTORE PUSH1 0x20 ADD PUSH1 0x0 DUP2 MSTORE PUSH1 0x20 ADD PUSH1 0x0 PUSH1 0x1 PUSH1 0x1 PUSH1 0xA0 SHL SUB AND DUP2 MSTORE PUSH1 0x20 ADD PUSH1 0x0 ISZERO ISZERO DUP2 MSTORE POP SWAP1 JUMP JUMPDEST PUSH1 0x0 PUSH1 0x20 DUP3 DUP5 SUB SLT ISZERO PUSH2 0x291D JUMPI DUP1 DUP2 REVERT JUMPDEST DUP2 MLOAD PUSH2 0x2928 DUP2 PUSH2 0x347B JUMP JUMPDEST SWAP4 SWAP3 POP POP POP JUMP JUMPDEST PUSH1 0x0 DUP1 PUSH1 0x0 DUP1 PUSH1 0x0 DUP1 PUSH1 0x0 DUP1 PUSH1 0x0 DUP1 PUSH2 0x140 DUP12 DUP14 SUB SLT ISZERO PUSH2 0x294E JUMPI DUP6 DUP7 REVERT JUMPDEST DUP11 CALLDATALOAD PUSH2 0x2959 DUP2 PUSH2 0x347B JUMP JUMPDEST SWAP10 POP PUSH1 0x20 DUP12 ADD CALLDATALOAD PUSH2 0x2969 DUP2 PUSH2 0x347B JUMP JUMPDEST SWAP9 POP PUSH1 0x40 DUP12 ADD CALLDATALOAD SWAP8 POP PUSH1 0x60 DUP12 ADD CALLDATALOAD SWAP7 POP PUSH1 0x80 DUP12 ADD CALLDATALOAD SWAP6 POP PUSH1 0xA0 DUP12 ADD CALLDATALOAD SWAP5 POP PUSH1 0xC0 DUP12 ADD CALLDATALOAD SWAP4 POP PUSH1 0xE0 DUP12 ADD CALLDATALOAD SWAP3 POP PUSH2 0x100 DUP12 ADD CALLDATALOAD SWAP2 POP PUSH2 0x120 DUP12 ADD CALLDATALOAD PUSH2 0x29AC DUP2 PUSH2 0x347B JUMP JUMPDEST DUP1 SWAP2 POP POP SWAP3 SWAP6 SWAP9 SWAP12 SWAP2 SWAP5 SWAP8 SWAP11 POP SWAP3 SWAP6 SWAP9 POP JUMP JUMPDEST PUSH1 0x0 DUP1 PUSH1 0x0 DUP1 PUSH1 0x0 DUP1 PUSH1 0x0 DUP1 PUSH1 0x0 DUP1 PUSH1 0x0 PUSH2 0x160 DUP13 DUP15 SUB SLT ISZERO PUSH2 0x29E0 JUMPI DUP1 DUP2 REVERT JUMPDEST DUP12 CALLDATALOAD PUSH2 0x29EB DUP2 PUSH2 0x347B JUMP JUMPDEST SWAP11 POP PUSH1 0x20 DUP13 ADD CALLDATALOAD PUSH2 0x29FB DUP2 PUSH2 0x347B JUMP JUMPDEST SWAP10 POP PUSH1 0x40 DUP13 ADD CALLDATALOAD SWAP9 POP PUSH1 0x60 DUP13 ADD CALLDATALOAD SWAP8 POP PUSH1 0x80 DUP13 ADD CALLDATALOAD SWAP7 POP PUSH1 0xA0 DUP13 ADD CALLDATALOAD SWAP6 POP PUSH1 0xC0 DUP13 ADD CALLDATALOAD SWAP5 POP PUSH1 0xE0 DUP13 ADD CALLDATALOAD SWAP4 POP PUSH2 0x100 DUP13 ADD CALLDATALOAD SWAP3 POP PUSH2 0x120 DUP13 ADD CALLDATALOAD SWAP2 POP PUSH2 0x140 DUP13 ADD CALLDATALOAD PUSH2 0x2A46 DUP2 PUSH2 0x347B JUMP JUMPDEST DUP1 SWAP2 POP POP SWAP3 SWAP6 SWAP9 SWAP12 POP SWAP3 SWAP6 SWAP9 SWAP12 SWAP1 SWAP4 SWAP7 SWAP10 POP JUMP JUMPDEST PUSH1 0x0 DUP1 PUSH1 0x40 DUP4 DUP6 SUB SLT ISZERO PUSH2 0x2A6C JUMPI DUP2 DUP3 REVERT JUMPDEST DUP3 CALLDATALOAD PUSH2 0x2A77 DUP2 PUSH2 0x347B JUMP JUMPDEST SWAP5 PUSH1 0x20 SWAP4 SWAP1 SWAP4 ADD CALLDATALOAD SWAP4 POP POP POP JUMP JUMPDEST PUSH1 0x0 PUSH1 0x20 DUP3 DUP5 SUB SLT ISZERO PUSH2 0x2A96 JUMPI DUP1 DUP2 REVERT JUMPDEST DUP2 MLOAD DUP1 ISZERO ISZERO DUP2 EQ PUSH2 0x2928 JUMPI DUP2 DUP3 REVERT JUMPDEST PUSH1 0x0 DUP1 PUSH1 0x0 PUSH1 0x60 DUP5 DUP7 SUB SLT ISZERO PUSH2 0x2AB9 JUMPI DUP3 DUP4 REVERT JUMPDEST DUP4 MLOAD PUSH2 0x2AC4 DUP2 PUSH2 0x3490 JUMP JUMPDEST PUSH1 0x20 DUP6 ADD MLOAD SWAP1 SWAP4 POP PUSH2 0x2AD5 DUP2 PUSH2 0x3490 JUMP JUMPDEST PUSH1 0x40 DUP6 ADD MLOAD SWAP1 SWAP3 POP PUSH4 0xFFFFFFFF DUP2 AND DUP2 EQ PUSH2 0x2AEE JUMPI DUP2 DUP3 REVERT JUMPDEST DUP1 SWAP2 POP POP SWAP3 POP SWAP3 POP SWAP3 JUMP JUMPDEST PUSH1 0x0 PUSH1 0x20 DUP3 DUP5 SUB SLT ISZERO PUSH2 0x2B0A JUMPI DUP1 DUP2 REVERT JUMPDEST POP CALLDATALOAD SWAP2 SWAP1 POP JUMP JUMPDEST PUSH1 0x0 PUSH1 0x20 DUP3 DUP5 SUB SLT ISZERO PUSH2 0x2B22 JUMPI DUP1 DUP2 REVERT JUMPDEST POP MLOAD SWAP2 SWAP1 POP JUMP JUMPDEST PUSH1 0x0 DUP1 PUSH1 0x40 DUP4 DUP6 SUB SLT ISZERO PUSH2 0x2B3B JUMPI DUP2 DUP3 REVERT JUMPDEST POP POP DUP1 MLOAD PUSH1 0x20 SWAP1 SWAP2 ADD MLOAD SWAP1 SWAP3 SWAP1 SWAP2 POP JUMP JUMPDEST PUSH1 0x0 DUP1 PUSH1 0x0 PUSH1 0x60 DUP5 DUP7 SUB SLT ISZERO PUSH2 0x2B60 JUMPI DUP3 DUP4 REVERT JUMPDEST DUP4 MLOAD SWAP3 POP PUSH1 0x20 DUP5 ADD MLOAD SWAP2 POP PUSH1 0x40 DUP5 ADD MLOAD SWAP1 POP SWAP3 POP SWAP3 POP SWAP3 JUMP JUMPDEST PUSH1 0x1 PUSH1 0x1 PUSH1 0xA0 SHL SUB AND SWAP1 MSTORE JUMP JUMPDEST ISZERO ISZERO SWAP1 MSTORE JUMP JUMPDEST PUSH1 0xFF AND SWAP1 MSTORE JUMP JUMPDEST PUSH12 0xFFFFFFFFFFFFFFFFFFFFFFFF NOT PUSH1 0x60 SWAP4 DUP5 SHL DUP2 AND DUP3 MSTORE SWAP2 SWAP1 SWAP3 SHL AND PUSH1 0x14 DUP3 ADD MSTORE PUSH1 0x28 ADD SWAP1 JUMP JUMPDEST PUSH1 0x0 DUP3 MLOAD DUP2 JUMPDEST DUP2 DUP2 LT ISZERO PUSH2 0x2BDA JUMPI PUSH1 0x20 DUP2 DUP7 ADD DUP2 ADD MLOAD DUP6 DUP4 ADD MSTORE ADD PUSH2 0x2BC0 JUMP JUMPDEST DUP2 DUP2 GT ISZERO PUSH2 0x2BE8 JUMPI DUP3 DUP3 DUP6 ADD MSTORE JUMPDEST POP SWAP2 SWAP1 SWAP2 ADD SWAP3 SWAP2 POP POP JUMP JUMPDEST PUSH1 0x1 PUSH1 0x1 PUSH1 0xF8 SHL SUB NOT DUP2 MSTORE PUSH1 0x60 SWAP3 SWAP1 SWAP3 SHL PUSH12 0xFFFFFFFFFFFFFFFFFFFFFFFF NOT AND PUSH1 0x1 DUP4 ADD MSTORE PUSH1 0x15 DUP3 ADD MSTORE PUSH32 0xD306A548755B9295EE49CC729E13CA4A45E00199BBD890FA146DA43A50571776 PUSH1 0x35 DUP3 ADD MSTORE PUSH1 0x55 ADD SWAP1 JUMP JUMPDEST PUSH1 0x1 PUSH1 0x1 PUSH1 0xA0 SHL SUB SWAP2 SWAP1 SWAP2 AND DUP2 MSTORE PUSH1 0x20 ADD SWAP1 JUMP JUMPDEST PUSH1 0x1 PUSH1 0x1 PUSH1 0xA0 SHL SUB SWAP3 DUP4 AND DUP2 MSTORE SWAP2 AND PUSH1 0x20 DUP3 ADD MSTORE PUSH1 0x40 ADD SWAP1 JUMP JUMPDEST PUSH1 0x1 PUSH1 0x1 PUSH1 0xA0 SHL SUB SWAP8 DUP9 AND DUP2 MSTORE SWAP6 DUP8 AND PUSH1 0x20 DUP8 ADD MSTORE PUSH1 0x40 DUP7 ADD SWAP5 SWAP1 SWAP5 MSTORE PUSH1 0x60 DUP6 ADD SWAP3 SWAP1 SWAP3 MSTORE PUSH1 0x80 DUP5 ADD MSTORE SWAP1 SWAP3 AND PUSH1 0xA0 DUP3 ADD MSTORE PUSH1 0xC0 DUP2 ADD SWAP2 SWAP1 SWAP2 MSTORE PUSH1 0xE0 ADD SWAP1 JUMP JUMPDEST PUSH1 0x1 PUSH1 0x1 PUSH1 0xA0 SHL SUB SWAP9 DUP10 AND DUP2 MSTORE SWAP7 DUP9 AND PUSH1 0x20 DUP9 ADD MSTORE PUSH1 0x40 DUP8 ADD SWAP6 SWAP1 SWAP6 MSTORE PUSH1 0x60 DUP7 ADD SWAP4 SWAP1 SWAP4 MSTORE PUSH1 0x80 DUP6 ADD SWAP2 SWAP1 SWAP2 MSTORE PUSH1 0xA0 DUP5 ADD MSTORE SWAP1 SWAP3 AND PUSH1 0xC0 DUP3 ADD MSTORE PUSH1 0xE0 DUP2 ADD SWAP2 SWAP1 SWAP2 MSTORE PUSH2 0x100 ADD SWAP1 JUMP JUMPDEST PUSH1 0x1 PUSH1 0x1 PUSH1 0xA0 SHL SUB SWAP3 SWAP1 SWAP3 AND DUP3 MSTORE PUSH1 0x20 DUP3 ADD MSTORE PUSH1 0x40 ADD SWAP1 JUMP JUMPDEST PUSH1 0x20 DUP1 DUP3 MSTORE PUSH1 0x15 SWAP1 DUP3 ADD MSTORE PUSH21 0x64732D6D6174682D7375622D756E646572666C6F77 PUSH1 0x58 SHL PUSH1 0x40 DUP3 ADD MSTORE PUSH1 0x60 ADD SWAP1 JUMP JUMPDEST PUSH1 0x20 DUP1 DUP3 MSTORE PUSH1 0x1F SWAP1 DUP3 ADD MSTORE PUSH32 0x5472616E7366657248656C7065723A205452414E534645525F4641494C454400 PUSH1 0x40 DUP3 ADD MSTORE PUSH1 0x60 ADD SWAP1 JUMP JUMPDEST PUSH1 0x20 DUP1 DUP3 MSTORE PUSH1 0x1E SWAP1 DUP3 ADD MSTORE PUSH32 0x446566696D69737452656C617965723A20494E56414C49445F4F524445520000 PUSH1 0x40 DUP3 ADD MSTORE PUSH1 0x60 ADD SWAP1 JUMP JUMPDEST PUSH1 0x20 DUP1 DUP3 MSTORE PUSH1 0x14 SWAP1 DUP3 ADD MSTORE PUSH20 0x64732D6D6174682D6D756C2D6F766572666C6F77 PUSH1 0x60 SHL PUSH1 0x40 DUP3 ADD MSTORE PUSH1 0x60 ADD SWAP1 JUMP JUMPDEST PUSH1 0x20 DUP1 DUP3 MSTORE PUSH1 0x1D SWAP1 DUP3 ADD MSTORE PUSH32 0x446566696D69737452656C617965723A20494E56414C49445F50414952000000 PUSH1 0x40 DUP3 ADD MSTORE PUSH1 0x60 ADD SWAP1 JUMP JUMPDEST PUSH1 0x20 DUP1 DUP3 MSTORE DUP2 DUP2 ADD MSTORE PUSH32 0x446566696D69737452656C617965723A20494E56414C49445F464143544F5259 PUSH1 0x40 DUP3 ADD MSTORE PUSH1 0x60 ADD SWAP1 JUMP JUMPDEST PUSH1 0x20 DUP1 DUP3 MSTORE PUSH1 0x14 SWAP1 DUP3 ADD MSTORE PUSH20 0x64732D6D6174682D6164642D6F766572666C6F77 PUSH1 0x60 SHL PUSH1 0x40 DUP3 ADD MSTORE PUSH1 0x60 ADD SWAP1 JUMP JUMPDEST PUSH1 0x20 DUP1 DUP3 MSTORE PUSH1 0x1E SWAP1 DUP3 ADD MSTORE PUSH32 0x5472616E7366657248656C7065723A20415050524F56455F4641494C45440000 PUSH1 0x40 DUP3 ADD MSTORE PUSH1 0x60 ADD SWAP1 JUMP JUMPDEST PUSH1 0x20 DUP1 DUP3 MSTORE PUSH1 0x1D SWAP1 DUP3 ADD MSTORE PUSH32 0x446566696D6973744C6962726172793A205A45524F5F41444452455353000000 PUSH1 0x40 DUP3 ADD MSTORE PUSH1 0x60 ADD SWAP1 JUMP JUMPDEST PUSH1 0x20 DUP1 DUP3 MSTORE PUSH1 0x29 SWAP1 DUP3 ADD MSTORE PUSH32 0x446566696D69737452656C617965723A20494E56414C49445F4C495155494449 PUSH1 0x40 DUP3 ADD MSTORE PUSH9 0x151657D05353D55395 PUSH1 0xBA SHL PUSH1 0x60 DUP3 ADD MSTORE PUSH1 0x80 ADD SWAP1 JUMP JUMPDEST PUSH1 0x20 DUP1 DUP3 MSTORE PUSH1 0x21 SWAP1 DUP3 ADD MSTORE PUSH32 0x446566696D69737452656C617965723A20494E53554646494349454E545F4554 PUSH1 0x40 DUP3 ADD MSTORE PUSH1 0x9 PUSH1 0xFB SHL PUSH1 0x60 DUP3 ADD MSTORE PUSH1 0x80 ADD SWAP1 JUMP JUMPDEST PUSH1 0x20 DUP1 DUP3 MSTORE PUSH1 0x21 SWAP1 DUP3 ADD MSTORE PUSH32 0x446566696D69737452656C617965723A2043414C4C45525F4E4F545F4F574E45 PUSH1 0x40 DUP3 ADD MSTORE PUSH1 0x29 PUSH1 0xF9 SHL PUSH1 0x60 DUP3 ADD MSTORE PUSH1 0x80 ADD SWAP1 JUMP JUMPDEST PUSH1 0x20 DUP1 DUP3 MSTORE PUSH1 0x25 SWAP1 DUP3 ADD MSTORE PUSH32 0x446566696D69737452656C617965723A20494E53554646494349454E545F544F PUSH1 0x40 DUP3 ADD MSTORE PUSH5 0x4B454E5F41 PUSH1 0xD8 SHL PUSH1 0x60 DUP3 ADD MSTORE PUSH1 0x80 ADD SWAP1 JUMP JUMPDEST PUSH1 0x20 DUP1 DUP3 MSTORE PUSH1 0x1F SWAP1 DUP3 ADD MSTORE PUSH32 0x446566696D69737452656C617965723A204F524445525F455845435554454400 PUSH1 0x40 DUP3 ADD MSTORE PUSH1 0x60 ADD SWAP1 JUMP JUMPDEST PUSH1 0x20 DUP1 DUP3 MSTORE PUSH1 0x24 SWAP1 DUP3 ADD MSTORE PUSH32 0x446566696D69737452656C617965723A204F42534552564154494F4E5F52554E PUSH1 0x40 DUP3 ADD MSTORE PUSH4 0x4E494E47 PUSH1 0xE0 SHL PUSH1 0x60 DUP3 ADD MSTORE PUSH1 0x80 ADD SWAP1 JUMP JUMPDEST PUSH1 0x20 DUP1 DUP3 MSTORE PUSH1 0x25 SWAP1 DUP3 ADD MSTORE PUSH32 0x446566696D69737452656C617965723A20494E53554646494349454E545F544F PUSH1 0x40 DUP3 ADD MSTORE PUSH5 0x25A2A72FA1 PUSH1 0xD9 SHL PUSH1 0x60 DUP3 ADD MSTORE PUSH1 0x80 ADD SWAP1 JUMP JUMPDEST PUSH1 0x20 DUP1 DUP3 MSTORE PUSH1 0x25 SWAP1 DUP3 ADD MSTORE PUSH32 0x446566696D69737452656C617965723A20444541444C494E455F4E4F545F5245 PUSH1 0x40 DUP3 ADD MSTORE PUSH5 0x1050D21151 PUSH1 0xDA SHL PUSH1 0x60 DUP3 ADD MSTORE PUSH1 0x80 ADD SWAP1 JUMP JUMPDEST PUSH1 0x20 DUP1 DUP3 MSTORE PUSH1 0x25 SWAP1 DUP3 ADD MSTORE PUSH32 0x446566696D69737452656C617965723A20494E56414C49445F544F4B454E5F41 PUSH1 0x40 DUP3 ADD MSTORE PUSH5 0x1353D55395 PUSH1 0xDA SHL PUSH1 0x60 DUP3 ADD MSTORE PUSH1 0x80 ADD SWAP1 JUMP JUMPDEST PUSH1 0x20 DUP1 DUP3 MSTORE PUSH1 0x21 SWAP1 DUP3 ADD MSTORE PUSH32 0x446566696D69737452656C617965723A20444541444C494E455F524541434845 PUSH1 0x40 DUP3 ADD MSTORE PUSH1 0x11 PUSH1 0xFA SHL PUSH1 0x60 DUP3 ADD MSTORE PUSH1 0x80 ADD SWAP1 JUMP JUMPDEST PUSH1 0x20 DUP1 DUP3 MSTORE PUSH1 0x24 SWAP1 DUP3 ADD MSTORE PUSH32 0x446566696D69737452656C617965723A20494E56414C49445F544F4B454E5F4F PUSH1 0x40 DUP3 ADD MSTORE PUSH4 0x292222A9 PUSH1 0xE1 SHL PUSH1 0x60 DUP3 ADD MSTORE PUSH1 0x80 ADD SWAP1 JUMP JUMPDEST PUSH1 0x20 DUP1 DUP3 MSTORE PUSH1 0x22 SWAP1 DUP3 ADD MSTORE PUSH32 0x446566696D69737452656C617965723A20494E56414C49445F544F4C4552414E PUSH1 0x40 DUP3 ADD MSTORE PUSH2 0x4345 PUSH1 0xF0 SHL PUSH1 0x60 DUP3 ADD MSTORE PUSH1 0x80 ADD SWAP1 JUMP JUMPDEST PUSH1 0x20 DUP1 DUP3 MSTORE PUSH1 0x22 SWAP1 DUP3 ADD MSTORE PUSH32 0x446566696D69737452656C617965723A204F42534552564154494F4E5F454E44 PUSH1 0x40 DUP3 ADD MSTORE PUSH2 0x1151 PUSH1 0xF2 SHL PUSH1 0x60 DUP3 ADD MSTORE PUSH1 0x80 ADD SWAP1 JUMP JUMPDEST PUSH1 0x20 DUP1 DUP3 MSTORE PUSH1 0x23 SWAP1 DUP3 ADD MSTORE PUSH32 0x5472616E7366657248656C7065723A204554485F5452414E534645525F464149 PUSH1 0x40 DUP3 ADD MSTORE PUSH3 0x131151 PUSH1 0xEA SHL PUSH1 0x60 DUP3 ADD MSTORE PUSH1 0x80 ADD SWAP1 JUMP JUMPDEST PUSH1 0x20 DUP1 DUP3 MSTORE PUSH1 0x24 SWAP1 DUP3 ADD MSTORE PUSH32 0x446566696D6973744C6962726172793A204944454E544943414C5F4144445245 PUSH1 0x40 DUP3 ADD MSTORE PUSH4 0x53534553 PUSH1 0xE0 SHL PUSH1 0x60 DUP3 ADD MSTORE PUSH1 0x80 ADD SWAP1 JUMP JUMPDEST PUSH1 0x20 DUP1 DUP3 MSTORE PUSH1 0x1F SWAP1 DUP3 ADD MSTORE PUSH32 0x446566696D69737452656C617965723A20524553455256455F544F5F4C4F5700 PUSH1 0x40 DUP3 ADD MSTORE PUSH1 0x60 ADD SWAP1 JUMP JUMPDEST PUSH1 0x20 DUP1 DUP3 MSTORE PUSH1 0x23 SWAP1 DUP3 ADD MSTORE PUSH32 0x446566696D69737452656C617965723A20494E56414C49445F57494E444F5754 PUSH1 0x40 DUP3 ADD MSTORE PUSH3 0x494D45 PUSH1 0xE8 SHL PUSH1 0x60 DUP3 ADD MSTORE PUSH1 0x80 ADD SWAP1 JUMP JUMPDEST PUSH1 0x0 PUSH2 0x1E0 DUP3 ADD SWAP1 POP PUSH2 0x3364 DUP3 DUP5 MLOAD PUSH2 0x2B8C JUMP JUMPDEST PUSH1 0x20 DUP4 ADD MLOAD PUSH2 0x3376 PUSH1 0x20 DUP5 ADD DUP3 PUSH2 0x2B79 JUMP JUMPDEST POP PUSH1 0x40 DUP4 ADD MLOAD PUSH2 0x3389 PUSH1 0x40 DUP5 ADD DUP3 PUSH2 0x2B79 JUMP JUMPDEST POP PUSH1 0x60 DUP4 ADD MLOAD PUSH1 0x60 DUP4 ADD MSTORE PUSH1 0x80 DUP4 ADD MLOAD PUSH1 0x80 DUP4 ADD MSTORE PUSH1 0xA0 DUP4 ADD MLOAD PUSH1 0xA0 DUP4 ADD MSTORE PUSH1 0xC0 DUP4 ADD MLOAD PUSH1 0xC0 DUP4 ADD MSTORE PUSH1 0xE0 DUP4 ADD MLOAD PUSH1 0xE0 DUP4 ADD MSTORE PUSH2 0x100 DUP1 DUP5 ADD MLOAD DUP2 DUP5 ADD MSTORE POP PUSH2 0x120 DUP1 DUP5 ADD MLOAD PUSH2 0x33DB DUP3 DUP6 ADD DUP3 PUSH2 0x2B79 JUMP JUMPDEST POP POP PUSH2 0x140 DUP4 DUP2 ADD MLOAD SWAP1 DUP4 ADD MSTORE PUSH2 0x160 DUP1 DUP5 ADD MLOAD SWAP1 DUP4 ADD MSTORE PUSH2 0x180 DUP1 DUP5 ADD MLOAD SWAP1 DUP4 ADD MSTORE PUSH2 0x1A0 DUP1 DUP5 ADD MLOAD PUSH2 0x3411 DUP3 DUP6 ADD DUP3 PUSH2 0x2B79 JUMP JUMPDEST POP POP PUSH2 0x1C0 DUP1 DUP5 ADD MLOAD PUSH2 0x3426 DUP3 DUP6 ADD DUP3 PUSH2 0x2B86 JUMP JUMPDEST POP POP SWAP3 SWAP2 POP POP JUMP JUMPDEST SWAP1 DUP2 MSTORE PUSH1 0x20 ADD SWAP1 JUMP JUMPDEST SWAP2 DUP3 MSTORE PUSH1 0x1 PUSH1 0x1 PUSH1 0xA0 SHL SUB AND PUSH1 0x20 DUP3 ADD MSTORE PUSH1 0x40 ADD SWAP1 JUMP JUMPDEST SWAP3 DUP4 MSTORE PUSH1 0x1 PUSH1 0x1 PUSH1 0xA0 SHL SUB SWAP2 SWAP1 SWAP2 AND PUSH1 0x20 DUP4 ADD MSTORE PUSH1 0x40 DUP3 ADD MSTORE PUSH1 0x60 ADD SWAP1 JUMP JUMPDEST PUSH1 0xFF SWAP2 SWAP1 SWAP2 AND DUP2 MSTORE PUSH1 0x20 ADD SWAP1 JUMP JUMPDEST PUSH1 0x1 PUSH1 0x1 PUSH1 0xA0 SHL SUB DUP2 AND DUP2 EQ PUSH2 0x1BBA JUMPI PUSH1 0x0 DUP1 REVERT JUMPDEST PUSH1 0x1 PUSH1 0x1 PUSH1 0x70 SHL SUB DUP2 AND DUP2 EQ PUSH2 0x1BBA JUMPI PUSH1 0x0 DUP1 REVERT INVALID LOG2 PUSH5 0x6970667358 0x22 SLT KECCAK256 SWAP10 PUSH15 0x9C7BEED1E714BA72942DB5FF3F021C MSIZE CALLVALUE 0x23 0x5D NOT LOG3 PC 0xAD 0xC9 RETURN 0x4B SAR 0x2E PUSH14 0xD64736F6C634300060600330000 "
    }
  },
  "interface": [
    {
      "inputs": [
        {
          "internalType": "address payable",
          "name": "_owner",
          "type": "address"
        },
        {
          "internalType": "address",
          "name": "_defimistFactory",
          "type": "address"
        },
        {
          "internalType": "address",
          "name": "_defimistRouter",
          "type": "address"
        },
        {
          "internalType": "address",
          "name": "_uniswapFactory",
          "type": "address"
        },
        {
          "internalType": "address",
          "name": "_uniswapRouter",
          "type": "address"
        },
        {
          "internalType": "address",
          "name": "_WETH",
          "type": "address"
        },
        {
          "internalType": "contract OracleCreator",
          "name": "_oracleCreater",
          "type": "address"
        }
      ],
      "stateMutability": "nonpayable",
      "type": "constructor"
    },
    {
      "anonymous": false,
      "inputs": [
        {
          "indexed": true,
          "internalType": "uint256",
          "name": "_orderIndex",
          "type": "uint256"
        }
      ],
      "name": "ExecutedOrder",
      "type": "event"
    },
    {
      "anonymous": false,
      "inputs": [
        {
          "indexed": true,
          "internalType": "uint256",
          "name": "_orderIndex",
          "type": "uint256"
        },
        {
          "indexed": true,
          "internalType": "uint8",
          "name": "_action",
          "type": "uint8"
        }
      ],
      "name": "NewOrder",
      "type": "event"
    },
    {
      "anonymous": false,
      "inputs": [
        {
          "indexed": true,
          "internalType": "uint256",
          "name": "_orderIndex",
          "type": "uint256"
        }
      ],
      "name": "WithdrawnExpiredOrder",
      "type": "event"
    },
    {
      "inputs": [],
      "name": "BOUNTY",
      "outputs": [
        {
          "internalType": "uint256",
          "name": "",
          "type": "uint256"
        }
      ],
      "stateMutability": "view",
      "type": "function"
    },
    {
      "inputs": [
        {
          "internalType": "address",
          "name": "token",
          "type": "address"
        },
        {
          "internalType": "uint256",
          "name": "amount",
          "type": "uint256"
        }
      ],
      "name": "ERC20Withdraw",
      "outputs": [],
      "stateMutability": "nonpayable",
      "type": "function"
    },
    {
      "inputs": [
        {
          "internalType": "uint256",
          "name": "amount",
          "type": "uint256"
        }
      ],
      "name": "ETHWithdraw",
      "outputs": [],
      "stateMutability": "nonpayable",
      "type": "function"
    },
    {
      "inputs": [],
      "name": "GAS_ORACLE_UPDATE",
      "outputs": [
        {
          "internalType": "uint256",
          "name": "",
          "type": "uint256"
        }
      ],
      "stateMutability": "view",
      "type": "function"
    },
    {
      "inputs": [
        {
          "internalType": "uint256",
          "name": "orderIndex",
          "type": "uint256"
        }
      ],
      "name": "GetOrderDetails",
      "outputs": [
        {
          "components": [
            {
              "internalType": "uint8",
              "name": "action",
              "type": "uint8"
            },
            {
              "internalType": "address",
              "name": "tokenA",
              "type": "address"
            },
            {
              "internalType": "address",
              "name": "tokenB",
              "type": "address"
            },
            {
              "internalType": "uint256",
              "name": "amountA",
              "type": "uint256"
            },
            {
              "internalType": "uint256",
              "name": "amountB",
              "type": "uint256"
            },
            {
              "internalType": "uint256",
              "name": "liquidity",
              "type": "uint256"
            },
            {
              "internalType": "uint256",
              "name": "priceTolerance",
              "type": "uint256"
            },
            {
              "internalType": "uint256",
              "name": "minReserveA",
              "type": "uint256"
            },
            {
              "internalType": "uint256",
              "name": "minReserveB",
              "type": "uint256"
            },
            {
              "internalType": "address",
              "name": "oraclePair",
              "type": "address"
            },
            {
              "internalType": "uint256",
              "name": "deadline",
              "type": "uint256"
            },
            {
              "internalType": "uint256",
              "name": "maxWindowTime",
              "type": "uint256"
            },
            {
              "internalType": "uint256",
              "name": "oracleId",
              "type": "uint256"
            },
            {
              "internalType": "address",
              "name": "factory",
              "type": "address"
            },
            {
              "internalType": "bool",
              "name": "executed",
              "type": "bool"
            }
          ],
          "internalType": "struct DefimistRelayer.Order",
          "name": "",
          "type": "tuple"
        }
      ],
      "stateMutability": "view",
      "type": "function"
    },
    {
      "inputs": [],
      "name": "PARTS_PER_MILLION",
      "outputs": [
        {
          "internalType": "uint256",
          "name": "",
          "type": "uint256"
        }
      ],
      "stateMutability": "view",
      "type": "function"
    },
    {
      "inputs": [],
      "name": "PROVISION",
      "outputs": [
        {
          "internalType": "uint8",
          "name": "",
          "type": "uint8"
        }
      ],
      "stateMutability": "view",
      "type": "function"
    },
    {
      "inputs": [],
      "name": "REMOVAL",
      "outputs": [
        {
          "internalType": "uint8",
          "name": "",
          "type": "uint8"
        }
      ],
      "stateMutability": "view",
      "type": "function"
    },
    {
      "inputs": [],
      "name": "WETH",
      "outputs": [
        {
          "internalType": "address",
          "name": "",
          "type": "address"
        }
      ],
      "stateMutability": "view",
      "type": "function"
    },
    {
      "inputs": [],
      "name": "defimistFactory",
      "outputs": [
        {
          "internalType": "address",
          "name": "",
          "type": "address"
        }
      ],
      "stateMutability": "view",
      "type": "function"
    },
    {
      "inputs": [],
      "name": "defimistRouter",
      "outputs": [
        {
          "internalType": "address",
          "name": "",
          "type": "address"
        }
      ],
      "stateMutability": "view",
      "type": "function"
    },
    {
      "inputs": [
        {
          "internalType": "uint256",
          "name": "orderIndex",
          "type": "uint256"
        }
      ],
      "name": "executeOrder",
      "outputs": [],
      "stateMutability": "nonpayable",
      "type": "function"
    },
    {
      "inputs": [],
      "name": "orderCount",
      "outputs": [
        {
          "internalType": "uint256",
          "name": "",
          "type": "uint256"
        }
      ],
      "stateMutability": "view",
      "type": "function"
    },
    {
      "inputs": [
        {
          "internalType": "address",
          "name": "tokenA",
          "type": "address"
        },
        {
          "internalType": "address",
          "name": "tokenB",
          "type": "address"
        },
        {
          "internalType": "uint256",
          "name": "amountA",
          "type": "uint256"
        },
        {
          "internalType": "uint256",
          "name": "amountB",
          "type": "uint256"
        },
        {
          "internalType": "uint256",
          "name": "priceTolerance",
          "type": "uint256"
        },
        {
          "internalType": "uint256",
          "name": "minReserveA",
          "type": "uint256"
        },
        {
          "internalType": "uint256",
          "name": "minReserveB",
          "type": "uint256"
        },
        {
          "internalType": "uint256",
          "name": "maxWindowTime",
          "type": "uint256"
        },
        {
          "internalType": "uint256",
          "name": "deadline",
          "type": "uint256"
        },
        {
          "internalType": "address",
          "name": "factory",
          "type": "address"
        }
      ],
      "name": "orderLiquidityProvision",
      "outputs": [
        {
          "internalType": "uint256",
          "name": "orderIndex",
          "type": "uint256"
        }
      ],
      "stateMutability": "payable",
      "type": "function"
    },
    {
      "inputs": [
        {
          "internalType": "address",
          "name": "tokenA",
          "type": "address"
        },
        {
          "internalType": "address",
          "name": "tokenB",
          "type": "address"
        },
        {
          "internalType": "uint256",
          "name": "liquidity",
          "type": "uint256"
        },
        {
          "internalType": "uint256",
          "name": "amountA",
          "type": "uint256"
        },
        {
          "internalType": "uint256",
          "name": "amountB",
          "type": "uint256"
        },
        {
          "internalType": "uint256",
          "name": "priceTolerance",
          "type": "uint256"
        },
        {
          "internalType": "uint256",
          "name": "minReserveA",
          "type": "uint256"
        },
        {
          "internalType": "uint256",
          "name": "minReserveB",
          "type": "uint256"
        },
        {
          "internalType": "uint256",
          "name": "maxWindowTime",
          "type": "uint256"
        },
        {
          "internalType": "uint256",
          "name": "deadline",
          "type": "uint256"
        },
        {
          "internalType": "address",
          "name": "factory",
          "type": "address"
        }
      ],
      "name": "orderLiquidityRemoval",
      "outputs": [
        {
          "internalType": "uint256",
          "name": "orderIndex",
          "type": "uint256"
        }
      ],
      "stateMutability": "nonpayable",
      "type": "function"
    },
    {
      "inputs": [],
      "name": "owner",
      "outputs": [
        {
          "internalType": "address payable",
          "name": "",
          "type": "address"
        }
      ],
      "stateMutability": "view",
      "type": "function"
    },
    {
      "inputs": [],
      "name": "uniswapFactory",
      "outputs": [
        {
          "internalType": "address",
          "name": "",
          "type": "address"
        }
      ],
      "stateMutability": "view",
      "type": "function"
    },
    {
      "inputs": [],
      "name": "uniswapRouter",
      "outputs": [
        {
          "internalType": "address",
          "name": "",
          "type": "address"
        }
      ],
      "stateMutability": "view",
      "type": "function"
    },
    {
      "inputs": [
        {
          "internalType": "uint256",
          "name": "orderIndex",
          "type": "uint256"
        }
      ],
      "name": "updateOracle",
      "outputs": [],
      "stateMutability": "nonpayable",
      "type": "function"
    },
    {
      "inputs": [
        {
          "internalType": "uint256",
          "name": "orderIndex",
          "type": "uint256"
        }
      ],
      "name": "withdrawExpiredOrder",
      "outputs": [],
      "stateMutability": "nonpayable",
      "type": "function"
    },
    {
      "stateMutability": "payable",
      "type": "receive"
    }
  ]
}